:100000000C946F030C948C030C948C030C948C0351
:100010000C948C030C948C030C948C030C948C0324
:100020000C948C030C948C030C949B290C946D2AD7
:100030000C94E51F0C948C030C948C030C948C038F
:100040000C948C030C948C030C948C030C948C03F4
:100050000C948C030C944D200C948C030C948C0306
:100060000C948C030C948C030C948C030C948C03D4
:100070000C948C030C948C030C948C030C948C03C4
:100080000C948C030C948C030C948C030C948C03B4
:100090000C948C030C948C030C948C030C948C03A4
:1000A0000C948C030C948C030C948C031E0421047C
:1000B000240427042A042C042F04150817081908FF
:1000C0001B081D081F08210823082D082F083108C8
:1000D00033083508370839083B083D0849085415E6
:1000E00054158E158E15C315E3155017AF17251629
:1000F000AF17D516D5164817AF17AF17AA17E216C0
:10010000E216E216E216E216E216E216E216E2162F
:10011000E216E216E216E216E216E216E216F4160D
:10012000011708170F1719173E183E1850185018C6
:1001300047185018501850183E183E184C185018B0
:1001400050184C18DA2A012BF32B012BF32B4D2BD3
:10015000702BF32BC62BD52B07634236B79BD8A742
:100160001A39685618AEBAAB558C1D3CB7CC5763DC
:10017000BD6DEDFD753EF6177231BF000000803F8A
:1001800008000000BE922449123EABAAAA2ABECDA6
:10019000CCCC4C3E00000080BEABAAAAAA3E000018
:1001A0000000BF000000803F000000000008417810
:1001B000D3BB4387D1133D190E3CC3BD4282AD2B47
:1001C0003E68EC8276BED98FE1A93E4C80EFFFBE3F
:1001D00001C4FF7F3F000000000001532B42294370
:1001E000E100500000001E00140004001D61010029
:1001F0004D001F001A0016001B6401002A00200099
:10020000080007000600E3002C002100150009008B
:1002100019004F004A00220017000A0005000000E4
:1002200001000100010000000100000001000100C8
:100230000100000001000000010023001C000B0071
:10024000110000000100240018000D0010005200F1
:100250004E0025000C000E0036000100280026008C
:1002600012000F00376401002B0027001300330039
:10027000386101004B006700310034002D625100ED
:100280000000010001000100010001000000010068
:100290000100010001000100010001000100010056
:1002A0000100010001000100010001000100010046
:1002B0000100010001000100010001000100010036
:1002C0000100010001000000010001000100000028
:1002D0000100000001000100010000000100000019
:1002E0000100010001000100010000000100010007
:1002F00001000100010001000100010001000100F6
:1003000001000100010001000100010001000100E5
:1003100001000100010000300100010001000100A6
:10032000013002300100010000000100350201002F
:1003300001000100000001003A00E200E0000100BD
:10034000010001003B003F004300010001000100EB
:100350003C00400044000100010001003D0041005C
:1003600044000100010001003E0042004500000081
:100370000100010001000000010000000100010077
:100380000100000001000000010001000100010067
:100390000100000001000100240021001E002700D0
:1003A00001000100250022001F00360001000100AD
:1003B00026002300200037000100010056005700EE
:1003C00028000100010001000100010001000100FE
:1003D00000003A00010001000100010000003B00A4
:1003E0001E0220022202010001003C001F02210225
:1003F000230201004C003D002F02CB5C2F000100C6
:1004000001003E003002CC5C3000010001003F00E2
:10041000310235003502000001000100010000003A
:1004200001000000010001000100000001000000C7
:100430000100400024022E020100000001004100E2
:1004400001002D0001000100010042000100250211
:10045000010001000100430001003800010001001B
:100460000100440001002E000100010001004500D0
:100470000100010001000100000001000100010075
:1004800001000100000001000100E2000100010084
:100490000100010001000100010001000100010054
:1004A0000100010001000100E10001000100E30082
:1004B0000100010001000100010001000100000035
:1004C0000100010001000000010000000100010026
:1004D00001000000010000000100010001005000C7
:1004E00001000000010001004B0051004E0001001E
:1004F00001000100AC0052000100010001000100F8
:10050000AB004F00A800010001000100A900AE00EF
:10051000AA000100010001000100AB000100010080
:10052000000016000700000004033000000016035E
:100530004500720067006F0044006F0078002000E3
:1005400045005A00000016034500720067006F0066
:1005500044006F007800200045005A0000000403AA
:10056000090409026D00040100A0FA090400000159
:10057000030101000921110100012240000705814A
:100580000308000A09040100010301020009211106
:10059000010001224D000705820308000A09040238
:1005A00000010300000009211101000122360007AB
:1005B00005830308000A0904030001030000000981
:1005C00021110100012239000705840320000112D6
:1005D00001100100000008EDFE07130100010203F5
:1005E0000105010906A101050719E029E715002504
:1005F0000195087501810205081901290595057500
:100600000191029501750391010507190029F7155C
:1006100000250195F875018102C005010980A1013D
:1006200085021601002603001A81002A8300751036
:1006300095018100C0050C0901A101850316010087
:10064000269C021A01002A9C02751095018100C0A7
:1006500005010902A1010901A100050919012905E6
:10066000150025019505750181029501750381012C
:100670000501093009311581257F9502750881062C
:1006800009381581257F950175088106050C0A3802
:10069000021581257F950175088106C0C0050109F5
:1006A00006A101050719E029E71500250195087540
:1006B0000181029501750881010508190129059537
:1006C000057501910295017503910105071900292E
:1006D000FF150026FF00950675088100C000112453
:1006E0001FBECFEFDAE0DEBFCDBF14E0A0E0B1E087
:1006F000E4E3F0E602C005900D92AC34B107D9F7FF
:1007000026E0ACE4B4E001C01D92A634B207E1F7E4
:100710000E94C2260C9418300C9400001092B9006C
:100720008AE08093B800089594EA9093BC00909179
:10073000BC0097FFFCCF9091B900987F983021F0D2
:10074000903111F081E008958093BB0084E880939C
:10075000BC008091BC0087FFFCCF8091B900887FEE
:10076000883111F0803471F780E0089584E9809336
:10077000BC008091BC0084FDFCCF08958093BB0039
:1007800084E88093BC008091BC0087FFFCCF9091EF
:10079000B900987F81E0983209F480E0089584E8F8
:1007A0008093BC008091BC0087FFFCCF8091BB0090
:1007B000089580B38C7080BB81B3836F81BB089533
:1007C00084B1807F84B985B1807F85B98AB1837F08
:1007D0008AB98BB1837F8BB93E9846980895CF93A1
:1007E000E82F873008F58091000181113AC0CE2FA3
:1007F00080E40E94940380930001811112C082E181
:100800000E94BE038093000181110BC081E090E043
:1008100001C0880FCA95EAF780950E94BE038093B5
:100820000001CF910C94B60390E0FC013797E730BC
:10083000F105B8F4EA5AFF4F0C94C82F209A289873
:1008400010C0219A29980DC0229A2A980AC0239A8A
:100850002B9807C0529A01C0539A5B9802C03E9AE7
:100860004698CF910895CF93873018F58091000175
:10087000811128C080E40E949403809300018823A2
:1008800011F0C0E012C083E10E94BE03809300011A
:100890008111F7CF81E40E949403809300018111BC
:1008A000F0CF0E94CF03C82FC0950E94B6038C2FB3
:1008B0000AC09FB18FB1807F869586959370892BF2
:1008C000809501C080E0CF9108950C944D060E9460
:1008D000B105809300010E94E0030E94D9032DE43A
:1008E00034E0E1EAF4E04EE04E0F119280E090E057
:1008F000D901A80FB91F1C92019686309105C1F746
:100900002A5F3F4F4E13F1CF0C941C070E94B10594
:10091000809300010E94E0030E94D903E1EAF4E021
:100920008EE08E0F11928E13FDCF089526E0829FE8
:10093000C0011124FC01E35BFB4F20E030E080E0CC
:1009400041E050E09081992319F09150908307C0C5
:10095000BA01022E01C0660F0A94EAF7862B2F5FB8
:100960003F4F31962630310569F7089596E0699F2B
:10097000B001112420E030E090E04FE0FC01022EB5
:1009800002C0F595E7950A94E2F7E0FF06C0F90189
:10099000E60FF71FE35BFB4F40832F5F3F4F26308F
:1009A000310561F70895CF92DF92EF92FF920F9396
:1009B0001F93CF93DF9380910001882379F080917A
:1009C0004C048F5F80934C04811108C00E94B105D4
:1009D00080930001811102C00E94430581EAC82E64
:1009E00084E0D82E98EAE92E94E0F92EC0E08C2F0E
:1009F0000E94EF0307E00C0F802F0E94EF038C2F63
:100A00000E949604182F8C2F0E943304F6019081C7
:100A1000D12FD095D9238123D82B6C2F8D2F8927C7
:100A20000E94B604F601D1936F01802F0E949604B4
:100A3000182F802F0E943304F7019081D12FD09579
:100A4000D9238123D82B602F8D2F89270E94B604AC
:100A5000F701D1937F010E94E003CF5FC73039F6E1
:100A60000E94200781E0DF91CF911F910F91FF90AD
:100A7000EF90DF90CF900895E82FF0E0EF55FB4F17
:100A800080810895089556985E9825982D98269807
:100A90002E9827982F988FEF90E09093890080935D
:100AA000880090938B0080938A0090938D008093B0
:100AB0008C00259A2D9A2FEF80E792E021508040FC
:100AC0009040E1F700C00000269A2E9A2FEF80E7B1
:100AD00092E0215080409040E1F700C00000279A4A
:100AE0002F9A2FEF80E792E0215080409040E1F76D
:100AF00000C0000025982D982FEF80E792E021504C
:100B000080409040E1F700C0000026982E982FEF1B
:100B100080E792E0215080409040E1F700C0000063
:100B200027982F9856985E9825982D9826982E9855
:100B300027982F98089589EA8093800089E0809310
:100B4000810024982C983F988AB18F7C8AB96E983E
:100B5000479A8BB180638BB9769A0E9443050C94B7
:100B60004A0680E2809300018091AF0481110EC09B
:100B70000E948E0381E08093AF042FEF83ED90E31A
:100B8000215080409040E1F700C0000080E40E94C6
:100B900094038093000181112EC00E94BE038093B4
:100BA0000001811128C00E94BE03809300018111C1
:100BB00022C08FE30E94BE038093000181111BC0FD
:100BC0000E94B60380E40E94940380930001811187
:100BD00012C08CE00E94BE038093000181110BC003
:100BE0000E94BE0380930001811105C08FE30E9423
:100BF000BE03809300010E94B60380910001089516
:100C0000FC01613021F060F16230B1F040C08281BE
:100C1000882309F43CC0E0915003F0915103808196
:100C2000827229F00E941C1185EC90E02CC00E9479
:100C30001C1185EE90E027C08281882341F1E0916C
:100C40005003F09151038081827229F00E941C119F
:100C500084EC90E018C00E941C1184EE90E013C058
:100C600082818823A1F0E0915003F09151038081AB
:100C7000827229F00E941C1186ED90E004C00E944F
:100C80001C1186EF90E00E94E4110E94981180E010
:100C900090E0089581E00C9415116091CA0570915F
:100CA000CB058091CC059091CD050E94901E569861
:100CB0005E9825982D9826982E9827982F98823000
:100CC000A9F028F4882341F0813059F00895833049
:100CD00031F0843049F00895259A2D9A0895259A87
:100CE0002D9A269A2E9A0895259A2D9A279A2F9A08
:100CF0000895662329F0811109C084E00C948B1CAF
:100D000084E00E94AC1C8DE00C94101508950F93A4
:100D10001F93CF93DF939C013A9521153F4148F5EE
:100D2000EB018C0190FF03C080EEFB01099511FFE0
:100D300003C081EEFE01099512FF03C082EEFE01A1
:100D4000099513FF03C083EEFE01099501151041BB
:100D500080F084EEFE01099585EEFE01099586EE90
:100D6000FE01099587EEFE01DF91CF911F910F9152
:100D70000994DF91CF911F910F910895877091E0B1
:100D800001C0990F8A95EAF7892F0E946A1E0C9478
:100D9000241E877091E001C0990F8A95EAF7892F88
:100DA0000E946A1E0C94241E877091E001C0990F66
:100DB0008A95EAF7892F0E94701E0C94241E877072
:100DC00091E001C0990F8A95EAF7892F0E94701E61
:100DD0000C94241ECF93DF93EC01805E9109089759
:100DE00010F0209719F469EC76E002C06EEB76E023
:100DF000CE010E9487068C2FDF91CF910C949B131C
:100E0000CF93DF93EC010E94AA14CE01805E91097A
:100E1000089710F0209719F46FED76E002C064EDAA
:100E200076E0CE01DF91CF910C94870681E00895A2
:100E300081E008950C9418070E94C20C0C949B0545
:100E40000E945D0E0E94D0100C946504282F2F7014
:100E500041F0822F90E02A3010F44D9608950697C5
:100E6000089587E290E0089508950C9434070C9457
:100E700035070895CF93DF930E942C180E942B0E04
:100E80000E941720EC0140E063E070E08AE391E00B
:100E90000E94540C0E943907CE010E9423208A3FF1
:100EA000910538F48FE99FE00197F1F700C0000049
:100EB000F3CF0E94DF0CDF91CF910C947320FF924F
:100EC0000F931F93CF93DF938C01FC01C081D181DD
:100ED00080915805811113C08281882349F0CE0189
:100EE0000E94861DF82E682FCE010E94291D04C085
:100EF000CE010E94591DF82EBE018F2D04C0CE01D7
:100F00000E94861DBE010E941809EC01B8010E94D2
:100F10001A07882309F484C1B801CE010E94D10BBD
:100F2000882309F47DC1B801CE010E94C00E882338
:100F300009F476C1B801CE010E94820B882309F41E
:100F40006FC1B801CE010E940610882309F468C160
:100F5000B801CE010E94F110882309F461C1C531A6
:100F6000FCE5DF0739F50E94571E282FF801828122
:100F70004091500350915103882379F02A7A91E0EF
:100F800009F490E09093B004911102C069E201C0AD
:100F900065E3CA010E94801F0AC08091B0048111DC
:100FA00002C069E201C065E3CA010E948B1F0E9472
:100FB000241E36C1C6318CE5D80708F092C0C13076
:100FC000ECE5DE0759F4F8018281882309F428C191
:100FD0008091F70581608093F70522C1C230FCE55E
:100FE000DF0708F466C0F8018281882309F469C02C
:100FF0000E94FF1E811102C00E94E01E0E94121F6B
:1010000090E09093380680933706FE01E350FC454C
:10101000E231F10530F4E35AFF4F809137060C942A
:10102000C82F8091370681603BC0826039C08460E0
:1010300037C0886035C0806133C0806231C0806451
:101040002FC080682DC0846088608093370640E0A0
:1010500064E070E08AE091E019C08E7F21C08D7F4E
:101060001FC08B7F1DC0877F1BC08F7E19C08F7DE7
:1010700017C08F7B15C08F7713C08B7F877F8093BE
:10108000370640E062E070E08AE291E00E94540C92
:1010900009C087FB222720F991E0922790FB87F96E
:1010A00080933706809137060E94161F0E942C18E5
:1010B000B7C0C115DC4569F081E08093B504809329
:1010C000B604C801DF91CF911F910F91FF900C944E
:1010D0001607F8018281882309F4A2C00E943A070A
:1010E0009FC0CD3CECE5DE0759F5F80182818823ED
:1010F00061F01092B6040E9417209093B40480937C
:10110000B30480E20E9409158BC08091B604882345
:1011100021F080E20E94101583C08091B304909169
:10112000B4040E942320883C910598F780E20E9435
:10113000101588E20E949B1388E20E94AA1470C0D6
:10114000CE3CFCE5DF0708F056C0CB3C8CE5D80769
:1011500061F5F8018281882351F01092B5040E9454
:1011600017209093B2048093B10482E0CBCF0E9409
:10117000571E85FF05C081E08093B5048093B604B7
:101180008091B50481110FC08091B1049091B20497
:101190000E942320883C910530F486E20E949B1334
:1011A00086E20E94AA1482E0B5CFCC3CDC4509F06F
:1011B00083CFF801828181119CCF0E94571E81FF4D
:1011C00005C081E08093B5048093B6048091B60495
:1011D00081119FCF8091B3049091B4040E94232089
:1011E000883C910508F095CF87E20E949B1387E227
:1011F0000E94AA148ECFC03DFCE5DF0731F4F80150
:101200008281882369F080E009C0C13DDC4509F096
:1012100053CFF8018281882319F082E00E945E2773
:1012200080E0DF91CF911F910F91FF900895089575
:1012300096E0799FF001112494E5899FE00DF11D5E
:101240001124E60FF11DEE0FFF1FE652FE4F8591B0
:1012500094910895880F991FFC01E85DFA4F8591DC
:1012600094910895CF93DF930E9418090E94E10A98
:10127000EC01811520E59207F0F5811530E4930724
:1012800008F021C1883E910500F5803E910508F0E7
:1012900094C1883A910570F4853A910508F0A3C08D
:1012A0008130910509F489C108F440C1049708F020
:1012B00084C13CC18D3B910508F4A0C0803C9105E0
:1012C00008F434C1805C9109F0C08115904258F453
:1012D000C11581E0D80708F070C1C03FD10508F4FE
:1012E00025C1D0656AC1C11590E3D90708F0E1C0F6
:1012F000CE019F70DAC0811525E5920708F043C042
:10130000811534E5930708F0F5C0811542E594078F
:1013100008F5C11581E5D80708F0D8C02C2F237037
:1013200081E090E002C0880F991F2A95E2F79C683F
:101330009E0174E0369527957A95E1F72370922BFC
:10134000CF70C695C69540E2C49FE0011124C82B1A
:10135000D92B33C1869586959E0123703327C115FD
:10136000D34508F0B8C040E2849FC0011124C1E019
:10137000D0E002C0CC0FDD1F2A95E2F78C2B9D2B0D
:10138000EC01DC681AC181152AE5920798F48115F1
:1013900039E5930708F0B9C08115964508F4AFC048
:1013A000C11588E5D80708F4C1C0DC2FCC27C06F71
:1013B000D06A03C1C1159BE5D90708F4B7C0C115B0
:1013C0002CE5D20708F4AFC0CE01905681159042AB
:1013D00008F0ACC08D2F8F710E945E0BDD27D062AC
:1013E0008F71D82BEAC0853A910509F4A2C0863ADC
:1013F000910509F0A1C0C2E8D0E4DFC0883A9105A8
:1014000009F49DC0893A910509F49CC08A3A910576
:1014100009F49BC08B3A910509F49AC08C3A910566
:1014200009F499C08B3B910509F498C08C3B910558
:1014300009F497C08D3A910509F496C0803B910557
:1014400009F495C08E3A910509F494C08F3A91053C
:1014500009F493C0813B910509F492C0823B910548
:1014600009F491C0833B910509F490C0843B910538
:1014700009F48FC0853B910509F48EC0863B910528
:1014800009F48DC0873B910509F48CC0883B910518
:1014900009F48BC0893B910509F48AC08A3B910508
:1014A00009F489C0C0E0D4E488C00E942A09EC0194
:1014B00084C0CE019927D3FF03C0EC01D86C7DC056
:1014C000EC01D06C7AC0DF70D06A77C0DC2FCC27FB
:1014D000C16FD06A72C040E2849FC0011124C1E094
:1014E000D0E002C0CC0FDD1F2A95E2F7C82BD92B24
:1014F000DA6863C0D82FCC27C46FD06A5EC0CF71C2
:10150000DD27DC2FCC27D06258C08F70806E90E032
:10151000906A24E0D695C7952A95E1F7CF709C0193
:101520003C2BE9014AC0DD27D06647C0C0E0D0E0CF
:1015300044C0C1E8D0E441C0C3E8D0E43EC0C2EE3C
:10154000D4E43BC0C9EED4E438C0CAEED4E435C01C
:10155000C5EBD4E432C0C6EBD4E42FC0C3EBD4E473
:101560002CC0C4EBD4E429C0C7EBD4E426C0CCEC37
:10157000D4E423C0CDECD4E420C0C3E8D5E41DC03E
:10158000CAE8D5E41AC0C2E9D5E417C0C4E9D5E475
:1015900014C0C1E2D6E411C0C3E2D6E40EC0C4E276
:1015A000D6E40BC0C5E2D6E408C0C6E2D6E405C066
:1015B000C7E2D6E402C0CAE2D6E4CE01DF91CF9101
:1015C00008958238910549F1B0F48133910509F409
:1015D00058C048F48932910509F44EC08A32910509
:1015E00009F454C008958533910509F440C0893346
:1015F000910599F00895833E910529F138F4803ED4
:10160000910591F0823E9105A1F00895863E9105E5
:10161000F9F0873E910531F108952091370620FDBC
:101620003AC021FD38C008958091370680FD35C04D
:1016300032C08091370682FF32C08091370684FD28
:1016400030C083EE39C08091370682FD28C0F5CFC7
:101650008091370683FF27C08091370684FD21C023
:1016600087EE2AC08091370683FD1DC0F5CF80919B
:10167000370685FD1AC01BC08091370685FD17C04F
:1016800014C08091370686FD14C015C080913706BE
:1016900086FD11C00EC080EE0FC089E30DC082EE42
:1016A0000BC080E009C086EE07C089E205C085E373
:1016B00003C08AE201C081E390E00895909137066B
:1016C00092FF0DC0282F2871283019F4877F84607D
:1016D00006C0282F2471243011F48B7F886093FF7B
:1016E0000DC0282F2871283119F4877E846106C027
:1016F000282F2471243111F48B7E886194FD877E1C
:10170000089508950F931F93CF93FB012281211118
:1017100002C0C1E041C08C01C091C404C11125C008
:1017200086319C45B1F70E94810B81E08093C4040F
:101730000E9417209093C3048093C2041092B704B0
:101740001092B9041092B8041092BB041092BA041B
:101750001092BD041092BC041092BF041092BE04FB
:101760001092C1041092C00417C08091C2049091DD
:10177000C3040E942320883C910558F69091B70439
:10178000E92FF0E0EE0FFF1FE854FB4F11830083B9
:101790009F5F9093B704C0E08C2FCF911F910F9162
:1017A0000895FB018D312CE5920731F48281882365
:1017B000A1F10E94FC0D2FC08E312CE5920731F46F
:1017C0008281882351F10E940C0E25C08F312CE5B7
:1017D000920741F48281882301F10E94F80D811162
:1017E000F2CFE7CF84322CE5920731F4828188234F
:1017F000A1F00E94250E08C085329C4571F48281BB
:10180000882359F00E94280E40E064E070E082E5F1
:1018100091E00E94540C80E0089581E00895682FC3
:1018200070E065547109072E000C880B990B0E941B
:10183000A02C20E030E040E451E40E942C2C9B01DD
:10184000AC0160E070E080E090E40E94C22D20E0F6
:1018500030E04CED53E40E94552D4FE050E00C94E5
:10186000A80D682F70E065547109072E000C880BD5
:10187000990B0E94A02C20E030E040E451E40E944B
:101880002C2C9B01AC0160E070E080E090E40E94B1
:10189000C22D20E030E04CED53E40E94552D0C9415
:1018A000100D0C94DF0C0895CF92DF92EF92FF920F
:1018B000CF93DF93EC016B01F42E8091C70481116B
:1018C00002C00E94C20C80912C0680FF54C08091FF
:1018D000D30481110E94DF0C81E08093D404D09363
:1018E0002B06C0932A06D0922906C0922806F092B1
:1018F0002F061092D5041092D6041092D70410929D
:10190000D8041092C80488819981AA81BB818093F0
:10191000CF049093D004A093D104B093D20420E0DC
:1019200030E040E85EE36C817D818E819F810E9482
:10193000552D6B017C018091AA01682F70E080E039
:1019400090E00E949E2C20E030E048EC52E40E949F
:101950002C2C9B01AC01C701B6010E94552D609350
:10196000CB047093CC048093CD049093CE0410925A
:10197000CA041092C904DF91CF91FF90EF90DF90DD
:10198000CF9008950E94FF1E811102C00E94E01EA8
:101990000E941B1F80932C068091C704811103C0F5
:1019A00081E08093C70480912C0680FF07C040E04F
:1019B00063E070E082E991E00C94540C089580910A
:1019C000C704811102C00E94C20C10921605109229
:1019D00015051092D4041092D30410920F051092A2
:1019E0001005109211051092120510920B0510921D
:1019F0000C0510920D0510920E0510920A0510921A
:101A00000905E9EEF4E0A9EDB4E01192119211920A
:101A100011921D921D9285E0E930F807B1F7089503
:101A2000CF92DF92EF92FF920F931F93CF93DF93AA
:101A30002091D304222309F482C06B017C018091A0
:101A4000C704811102C00E94C20C09E015E0C7E082
:101A5000D0E0A7019601F801929182917291629172
:101A60008F010E94272C811131C0FE01EE0FFF1F54
:101A7000EE0FFF1FE751FB4F10821182128213827B
:101A8000DE01AA0FBB1FA752BB4F11961C921E92DC
:101A9000C730D105E9F0219644815581668177816F
:101AA0004083518362837383148215821682178266
:101AB00012968D919C91139711969C938E931396E9
:101AC0001C921E92129734961296E2CF219708F636
:101AD0008091150590911605019797FD05C090938B
:101AE00016058093150504C0109216051092150571
:101AF00080911505909116052091130530911405DC
:101B00002817390724F01092140510921305892B19
:101B1000B1F410920F051092100510921105109259
:101B2000120510920B0510920C0510920D051092E3
:101B30000E0510920A05109209051092D304DF9148
:101B4000CF911F910F91FF90EF90DF90CF9008956C
:101B5000CF92DF92EF92FF92CF93DF936B017C01E4
:101B6000EA018091C704811102C00E94C20C8091D9
:101B70002C0680FF36C080911505909116050897B8
:101B800084F58091D40481110E94DF0C81E0809360
:101B9000D3041092C6041092C50420E030E0A901DD
:101BA000C701B6010E94502D1816DCF4809115056E
:101BB00090911605FC01EE0FFF1FEE0FFF1FE7517E
:101BC000FB4FC082D182E282F382FC01EE0FFF1F45
:101BD000E752FB4FD183C083019690931605809303
:101BE0001505DF91CF91FF90EF90DF90CF90089592
:101BF00080912C068170089580912C0681608093DD
:101C00002C060E941F1F0E94530C40E062E070E00F
:101C100082E891E00C94540C40E062E070E082E7CE
:101C200091E00E94540C2FEF81EE94E0215080400F
:101C30009040E1F700C000000E94DF0C80912C066C
:101C40008E7F80932C060C941F1F10921705089509
:101C50001092170508958091310581110C94510C53
:101C600008950E942B0E1092310540E068E070E06C
:101C70008BE292E00C94540C1092300540E068E046
:101C800070E08BEA91E00C94540C0E942B0E209192
:101C90002F0530E02F5F3F4F2370332720932F0510
:101CA00048E2429FC001439F900D112440E065E04F
:101CB00070E085559D4F0C94540CCF9380912C056A
:101CC000882309F441C08091180590911905009767
:101CD00081F40E9417209093190580931805209194
:101CE0001A0530E02115310571F480911B0590E053
:101CF0000BC00E94232020914B0330914C032817E6
:101D0000390738F321C0C9010197FC01E45EFA4F9D
:101D10008081F901E45EFA4FC08190913105911103
:101D20000E94310C80913105882319F08C2F0E947C
:101D30000F0C80911A0590E0019660911B0570E0F0
:101D40000E94B42F80931A05CF910895089581E0E1
:101D50008093310540E068E070E08BE692E00E94FD
:101D6000540C0C94A60E089581E08093300540E059
:101D700068E070E08BEE91E00E94540C0C94B30E7E
:101D8000EF92FF921F93CF93DF93CDB7DEB7A39768
:101D90000FB6F894DEBF0FBECDBF7C0180322CE5BC
:101DA000920741F4FB018281882309F448C00E9414
:101DB000A70E98C08132FCE59F0739F4FB018281B0
:101DC0008823E9F10E94310E8DC08232FCE59F0725
:101DD00049F4FB018281882391F1809131058111C1
:101DE000F1CFE5CF8632FCE59F0739F4FB01828114
:101DF000882329F10E94B40E75C08732FCE59F0745
:101E000039F4FB0182818823D1F00E943C0E6AC024
:101E10008832FCE59F0749F4FB018281882379F031
:101E2000809130058111F1CFE5CF83329C4539F4A3
:101E3000FB018281882319F00E94450E53C0409116
:101E40003105411105C080913005882309F4D1C0C6
:101E5000FB015281552309F451C0F0EEEF16F10455
:101E600061F40E942B0E81E080932E0510922D05C7
:101E700010922C0510921B0535C022EEE216F104DB
:101E800071F40E942B0E80912E05882319F081E0B9
:101E900080932D0510922E0510922C0523C033EE51
:101EA000E316F10491F480912D05882339F10E9405
:101EB0002B0E10922E0581E080932C0510921A05AE
:101EC00010921905109218050DC082E5E816F1046C
:101ED00059F480914B0390914C030A9790934C03D3
:101EE00080934B0380E086C091E5E916F10431F45C
:101EF00080914B0390914C030A96F0CF80912F056F
:101F000010914F03811108C0FB012081120F135063
:101F100080914D03180F43C0813091F4FB01208163
:101F2000120F105E20914D03120F81812EE030E0E0
:101F3000281B3109822F880F880F280F120F38C0F5
:101F4000823071F4FB012081120F105E90914D03DD
:101F5000190F21818EE090E0821B9109F7E025C0E6
:101F6000833031F583E2E2E6F3E0DE011196019081
:101F70000D928A95E1F71350FB01808121E030E05A
:101F80002C0F3D1F280F311DC90120914D033091A9
:101F90004E03FC01E20FF31F2081120FFB01218190
:101FA0008EE090E0821B9109FCE08F9F100D1124C0
:101FB0005523A1F0442319F0812F0E940F0C80912A
:101FC0002E05882381F080911B05E82FF0E0E45E68
:101FD000FA4F10838F5F80931B0505C0442319F0CF
:101FE000812F0E94310C81E02FEFE216F10410F4F2
:101FF00079CF81E0A3960FB6F894DEBF0FBECDBFB8
:10200000DF91CF911F91FF90EF9008959F92AF9233
:10201000BF92CF92DF92EF92FF920F931F93CF93D5
:10202000DF938C016B0110923205D0E0EE24E39433
:10203000F12CAA24AA94BA2C809132058111A2C055
:10204000809101014091020199249A9490E0E82F37
:10205000F42FE90FF11DE90FF11D259134910217BD
:10206000130709F4992E232B11F09F5FF0CF2FEF68
:10207000921609F47FC0C1E020910601309107015A
:102080002F3F3F4F09F4C0E0F60182812091050106
:10209000A7018823A1F101C0440F9A94EAF7422BCB
:1020A00040930501CC2309F45CC0970102C0220FC4
:1020B000331F9A95E2F7C9010197242F30E0821768
:1020C000930791F48091030190910401009719F016
:1020D0000E94EA0604C061E080E00E947906B092A6
:1020E0000701A09206013DC00E94172090930701AE
:1020F00080930601109309010093080132C002C0C9
:10210000440F551F9A95E2F7CA010197422F50E0FC
:102110008417950769F48091030190910401009759
:1021200019F00E94000704C060E080E00E94790678
:10213000CC2361F0C8010E94EA060E94241EC80157
:102140000E9400071092070110920601C70101C00A
:10215000880F9A94EAF780959091050189238093DE
:10216000050180910501811106C0109207011092AE
:10217000060101C0C0E0DC2B809132058F5F8093A7
:1021800032055ACF81E08D27DF91CF911F910F91BA
:10219000FF90EF90DF90CF90BF90AF909F90089509
:1021A00080910601909107019C01215031092E3F39
:1021B0003F4FB0F40E942320459790F08FEF9FEFA0
:1021C0009093070180930601809108019091090185
:1021D0000E94000780910801909109010C94EA0681
:1021E0000895CF93DF93813020E89207D0F0FB0170
:1021F00022812223B1F0EC0180913305811109C0C5
:102200008CE090E00E94E22F0E94151181E0809303
:1022100033050E941C11CE019F770E94E4110E9499
:10222000981181E0DF91CF91089580933405682F54
:102230008CE090E00C94F02FE0915003F09151036A
:1022400080818093300681FF03C081EE0E94AA1432
:102250008091300685FF03C085EE0E94AA1480910C
:10226000300680FF03C080EE0E94AA1480913006E1
:1022700084FF03C084EE0E94AA148091300682FF7E
:1022800003C082EE0E94AA148091300686FF03C02C
:1022900086EE0E94AA148091300683FF03C083EE6D
:1022A0000E94AA148091300687FF03C087EE0E9427
:1022B000AA1480913405823001F1A8F48823C9F072
:1022C000813079F580EE0E949B1381EE0E949B1372
:1022D00088E10E949B1388E10E94AA1481EE0E946B
:1022E000AA1480EE1CC0843081F08530D1F486EED3
:1022F00001C082EE0E949B1314C082EE0E949B13C9
:1023000087E50E949B1387E50AC086EE0E949B1317
:1023100086EE0E94AA1488E10E949B1388E10E9425
:10232000AA148FE39CE90197F1F700C0000008951B
:1023300080913405813049F030F0823021F08530D1
:1023400051F486EE06C082EE04C08CE20E949B131C
:102350008CE20E94AA148091300681FF03C081EEB6
:102360000E949B138091300685FF03C085EE0E947A
:102370009B138091300680FF03C080EE0E949B1368
:102380008091300684FF03C084EE0E949B138091ED
:10239000300682FF03C082EE0E949B1380913006BC
:1023A00086FF03C086EE0E949B138091300683FF58
:1023B00003C083EE0E949B138091300687FF03C009
:1023C00087EE0C949B130895EF92FF921F93CF9387
:1023D000DF937C01CCE0D0E097010C2E02C0369553
:1023E00027950A94E2F7122F1F70812F0E9426076B
:1023F0000E949B13812F0E9426070E94AA142497F3
:10240000CC3F8FEFD80741F7DF91CF911F91FF901D
:10241000EF90089590933A05809339050895E091DF
:102420003905F0913A05309721F00190F081E02DC7
:10243000099480E00895E0913905F0913A053097CC
:1024400021F00280F381E02D09940895E09139058F
:10245000F0913A05309721F00480F581E02D099440
:10246000089520913705309138058217930771F050
:102470009093380580933705E0913905F0913A053E
:10248000309721F00680F781E02D0994089520917E
:102490003505309136058217930771F09093360514
:1024A00080933505E0913905F0913A05309721F098
:1024B0000084F185E02D0994089508950C945D122F
:1024C00081E008950E940E200E9467040C94A520CC
:1024D000CF92DF92EF92FF920F931F93CF93DF93F0
:1024E000CDB7DEB72B970FB6F894DEBF0FBECDBFCA
:1024F0000E94D3040E946012811111C08FEF898362
:102500008A831B820E9417208160782F9D838C8391
:1025100049815A816B818D810E944C1356C08CE396
:10252000C82E85E0D82E00E010E0E02E802F0E941B
:102530003C05F60141916F01F42EF82631F40F5F4E
:102540001F4F0E30110589F7D9CF9091F70591FFF4
:1025500004C08B870E9442058B8520E030E04F2D20
:1025600050E0922FBA01022E02C0759567950A9429
:10257000E2F760FF24C02E83EF8221E030E06901A2
:1025800002C0CC0CDD1C9A95E2F790E08C219D21D5
:10259000892B09F420E028870E9417208160782F7A
:1025A0009A8789874E815F8168858A850E944C134E
:1025B000F801E45CFA4F8081C826C08206C02F5F14
:1025C0003F4F2630310569F6BACF0E94382210916C
:1025D0003B050E940F121817A1F00E940F12809362
:1025E0003B052B960FB6F894DEBF0FBECDBFDF9133
:1025F000CF911F910F91FF90EF90DF90CF900C94AF
:1026000037072B960FB6F894DEBF0FBECDBFDF9114
:10261000CF911F910F91FF90EF90DF90CF90089591
:10262000DC0111962C9111978C91682F70E041E09C
:1026300050E001C0440F8A95EAF712968C911297E8
:1026400030E0882329F080915A058823E9F006C0FC
:10265000F901E65BFA4F90819423B1F086E0829F06
:10266000F001839FF00D1124E60FF71FEE0FFF1FFF
:10267000EB57FC4F808191818D939C93F901E65B30
:10268000FA4F8081482B06C0F901E65BFA4F40956E
:102690008081482340830895CF93DF93CDB7DEB781
:1026A0002B970FB6F894DEBF0FBECDBF942F4F838C
:1026B000252F588769877A878B874A855B85452BC5
:1026C00021F02F3F09F59F3FF9F4DE01119686E0D6
:1026D000FD0111928A95E9F785E0FE013796019098
:1026E0000D928A95E1F749815A816B817C818D81B8
:1026F0009E810E94FB1A2B960FB6F894DEBF0FBE88
:10270000CDBFDF91CF910895CE0107960E9410139F
:10271000DCCFFC01808191810E94C51D92959F7044
:10272000963041F480915A0591E0892780935A05AB
:10273000909359050895CF93DF931F92CDB7DEB7DD
:10274000882309F403C1682F8238C1F40E940F1254
:1027500081FDFCC069E380915003909151030E9478
:10276000801F0E94241E2FEF81EE94E021508040B4
:102770009040E1F700C0000069E319C0833811F50B
:102780000E940F1280FDE2C063E58091500390919A
:1027900051030E94801F0E94241E2FEF81EE94E0BF
:1027A000215080409040E1F700C0000063E5809137
:1027B0005003909151030E948B1F0F90DF91CF9196
:1027C0000C94241E8438C1F40E940F1282FDBEC0F6
:1027D00067E480915003909151030E94801F0E94F2
:1027E000241E2FEF81EE94E0215080409040E1F7CD
:1027F00000C0000067E4DBCF8CEF860F813A70F4F5
:10280000862F69830E945C24698181119FC0809119
:102810005003909151030E94801FCFCF80E2860F1A
:10282000883048F4677081E001C0880F6A95EAF744
:102830000E945A1EC2CF8BE5860F833088F4653A1A
:1028400029F0663A31F083E890E005C081E890E035
:1028500002C082E890E00F90DF91CF910C9431128A
:1028600088E5860F853108F071C0683A61F1693AF0
:1028700069F16A3A71F16B3A79F16C3A81F16B3B2B
:1028800089F16C3B91F16D3A99F1603BA1F16E3A9F
:10289000A9F16F3AB1F1613BB9F1623BC1F1633B20
:1028A000C9F1643BD1F1653BD9F1663BE1F1673B8E
:1028B000E9F1683BF1F1693BF9F16A3B09F43FC08A
:1028C00080E090E03EC082EE90E03BC089EE90E078
:1028D00038C08AEE90E035C085EB90E032C086EBE0
:1028E00090E02FC083EB90E02CC084EB90E029C0F7
:1028F00087EB90E026C08CEC90E023C08DEC90E05C
:1029000020C083E891E01DC08AE891E01AC082E906
:1029100091E017C084E991E014C081E292E011C017
:1029200083E292E00EC084E292E00BC085E292E086
:1029300008C086E292E005C087E292E002C08AE227
:1029400092E00F90DF91CF910C9447120F90DF919E
:10295000CF910895882309F45BC0682F823879F4F9
:102960000E940F1281FF54C069E38091500390913F
:1029700051030E94801F0E94241E69E310C0833807
:10298000B1F40E940F1280FF43C063E580915003B1
:10299000909151030E94801F0E94241E63E5809144
:1029A0005003909151030E948B1F0C94241E843875
:1029B00079F40E940F1282FF2BC067E480915003CC
:1029C000909151030E94801F0E94241E67E4E7CF6C
:1029D0008CEF860F813A18F380E2860F883048F436
:1029E000677081E001C0880F6A95EAF70E94601E57
:1029F000DCCF8BE5860F833020F480E090E00C94F0
:102A00003112685A653120F480E090E00C9447124E
:102A10000895882321F00E945A1E0C94241E0895C4
:102A2000882321F00E94601E0C94241E08958F922A
:102A30009F92AF92BF92CF92DF92EF92FF920F934D
:102A40001F93CF93DF931F92CDB7DEB77C01C72EC4
:102A5000FC01058102950F701281112321F0698319
:102A60000E94771E698169830E941D1E69818823E7
:102A700081F0112371F080E2860F883050F082E0FF
:102A80000E94061E0E941D1E91E0D82ED926698143
:102A900001C0D12CAC2CA2948FE0A822B12CF5015E
:102AA000E159FF4F0C94C82F8C2D807F0C2D0F7097
:102AB000882311F00295007F1123C1F0002309F44F
:102AC000D2C180E2860F883010F0611105C0802FDE
:102AD00069830E945A1E04C0802F69830E946A1E67
:102AE000698169830E94241E6981BDC1862F698323
:102AF0000E94AA146981002309F431C280E2860F82
:102B0000883010F0611104C0802F0E94601E03C045
:102B1000802F0E94701E0E94241E21C29C2D907F37
:102B20008C2D8F70903211F08295807F662319F082
:102B30006130B1F01EC0112349F0002309F44BC1EC
:102B4000013009F048C10E948A1E09C2002319F011
:102B5000013009F404C289830E948D1E898141C11C
:102B6000112321F0023008F0FAC135C10111F7C17B
:102B700038C1112321F0002309F42DC174C10023B1
:102B800009F42FC181C18C2D86958695837090E0C4
:102B9000009719F0019761F0E2C1112321F0862F0F
:102BA0009C2D937002C080E090E00E943112E7C13A
:102BB000112321F0862F9C2D937002C080E090E0BD
:102BC0000E944712DCC11123F9F0653F51F0663FC6
:102BD00071F0643FA9F480913106909132068160D2
:102BE0000BC08091310690913206826005C08091C1
:102BF00031069091320684609093320680933106BC
:102C0000862F0E9440211EC0653F51F0663F71F043
:102C1000643FA9F480913106909132068E7F0BC0FB
:102C200080913106909132068D7F05C080913106EA
:102C3000909132068B7F9093320680933106862FD7
:102C40000E94A8210E942D229AC18C2D837009F028
:102C500052C0111190C1862F829586958770880F7A
:102C6000880F962F9F70892E912CA12CB12C082EA5
:102C700004C0880C991CAA1CBB1C0A94D2F764FFE0
:102C800014C00FE010E020E030E0B901A80104C05A
:102C9000440F551F661F771F8A95D2F7CB01BA01E3
:102CA000609570958095909503C060E070E0CB01D1
:102CB0002C2D26952695237030E02230310569F0C1
:102CC0002330310589F0682979298A299B29213007
:102CD000310571F00E943E1C4EC1682979298A296C
:102CE0009B290E94501C47C10E943E1CC501B40193
:102CF0000E942C1C40C1112319F08C2D817001C041
:102D00008695882309F437C1862F8295869587702A
:102D1000880F880F962F9F70892E912CA12CB12C93
:102D2000082E04C0880C991CAA1CBB1C0A94D2F75C
:102D300064FF14C00FE010E020E030E0B901A8010A
:102D400004C0440F551F661F771F8A95D2F7CB0129
:102D5000BA01609570958095909503C060E070E031
:102D6000CB012C2D269526952370422F50E0423022
:102D7000510569F04330510589F0682979298A297C
:102D80009B294130510571F00E94041DF4C068294F
:102D900079298A299B290E94161DEDC00E94041DD5
:102DA000C501B4010E94F21CE6C0862F90E0FC0130
:102DB000E05EF109E531F10508F051C0E158FF4F3F
:102DC0000C94C82F062F0F708C2D8F71112331F0AA
:102DD0000E948B1C802F0E940915C1C00E94AC1C50
:102DE000802F0E941015BBC0112339F00111B7C00C
:102DF0008C2D8F710E94D11CB2C0023008F0AFC080
:102E0000F7CF112339F08C2D8F710E948B1CA7C036
:102E10001123C9F38C2D8F710E94AC1CA0C011230B
:102E200029F08C2D8F710E94761C99C00E94711C14
:102E300096C0112351F01C2D1F71812F0E948B1CF5
:102E400063E0812F0E94FD1D8AC081E00E94061E62
:102E5000023008F484C082E00E94061E80C0112364
:102E600031F0002381F2862F0E949B1378C000234B
:102E700089F2693349F45FEF77EE83E05150704097
:102E80008040E1F700C00000862F0E94AA1467C0AE
:102E90004C2D4F70C7010E9400060E949F1B6FC0FF
:102EA000623FB1F028F4603F49F0613FF9F028C07B
:102EB000643FB9F058F0653F71F022C0112309F466
:102EC00049C090915A0581E0892708C081E0182700
:102ED00010935A053FC011113DC081E080935A05FF
:102EE00039C0111137C010925A0534C0112329F08E
:102EF00080915905882329F32BC0002311F32AC0A0
:102F0000809159050023D1F0882341F090915A0512
:102F100081E0892780935A0510925905862F69838D
:102F2000112319F00E949B1307C00E94AA1486E087
:102F3000F70111928A95E9F769810CC0882351F055
:102F4000111108C090915A0581E0892780935A0594
:102F5000109259054C2D4F70C7010E941709F8E0D7
:102F6000AF16B10441F05CF04AE0A41AB10852E097
:102F7000A516B10420F40E940F120E943707DD202D
:102F8000F1F00E94F91D80FD1AC0F70112820E9423
:102F9000F31D0E948B1CC7010E94ED170E94F31DB8
:102FA0000F90DF91CF911F910F91FF90EF90DF90E5
:102FB000CF90BF90AF909F908F900C94AC1C0F90CF
:102FC000DF91CF911F910F91FF90EF90DF90CF9005
:102FD000BF90AF909F908F9008950F931F93CF93C2
:102FE000DF93EC01888199812B813C81232BB9F0FF
:102FF0009F3F11F48F3F99F0CE010E945F07882315
:1030000071F0688179818A810E94D01D8C010E94B3
:10301000281D0E94291CB801CE010E941715DF91BE
:10302000CF911F910F9108950E94771E0E94871ED5
:1030300080915003909151030E94961F0E94241E7C
:103040000E94C6220E942D2280E090E00E94311250
:1030500080E090E00C9447120E94671E0C941418B4
:103060000E94C51DE92FE295EF70F0E03297EE3037
:10307000F105B0F4EC56FF4F0C94C82F803F91F04F
:1030800018F4803E68F40EC0843F51F40BC0803EBB
:1030900048F0813F29F406C093FB882780F9089502
:1030A00080E0089581E00895CF93DF9300D000D0B1
:1030B0001F92CDB7DEB70F900F900F900F900F902B
:1030C000DF91CF910895CF93DF9300D000D000D04F
:1030D000CDB7DEB726960FB6F894DEBF0FBECDBFD4
:1030E000DF91CF9108951F93CF93DF93C0915B053C
:1030F00016E080915C05C81799F0D0E01C9FF001A4
:103100001D9FF00D1124E35AFA4F408151816281D5
:103110007381848195810E9463182196C770E9CFDD
:10312000DF91CF911F91089540918D0550918E05AB
:1031300060918F0570919005809191059091920515
:103140000C94631820915B0590915C0556E029175B
:10315000A9F030E0529FF001539FF00D1124E35A83
:10316000FA4F7181671306C07081871303C07281A3
:10317000471306C02F5F3F4F2770E9CF80E00895C7
:1031800081E008958091920582958F7009F054C076
:1031900080918F05882309F44FC080915B05A09131
:1031A0005C0560918D0570918E0540919005509160
:1031B0009105B6E08A1709F43FC090E0411551052A
:1031C000C1F17F3F11F46F3FA1F1B89FF001B99FAA
:1031D000F00D1124E35AFA4F218172132AC0208185
:1031E000621327C02281211124C023813481241736
:1031F000350710F421503109241B350B283C3105CB
:10320000C0F4209192052F7020612093920526E052
:10321000289FF001299FF00D1124EE59FA4F80816B
:103220008F70806180838DE895E00E94ED170C948B
:10323000731801968770BECF0895AF92BF92CF9258
:10324000DF92EF92FF920F931F93CF93DF93CDB74F
:10325000DEB762970FB6F894DEBF0FBECDBF7C011C
:1032600085E0F701DE011D9601900D928A95E1F748
:10327000D7010C9111965C9111971296BC90129700
:103280001396CD90DC90149730918D0540918E056A
:103290008091900590919105009709F47DC14F3F71
:1032A00019F43F3F09F478C1A0908F05AA2009F4D2
:1032B0000DC120919205C816D90628F0F601E81B29
:1032C000F90BCF0104C0809590958C0D9D1D11E0E8
:1032D000883C910588F010E0207F09F0BEC07C2D6D
:1032E000D98AC88A402F6B2D89890E9454188DE88D
:1032F00095E00E94ED1748C1822F807F09F075C0CC
:10330000451314C0301312C0B11010C02F702061CB
:10331000209392050E9494188DE895E00E94ED1785
:1033200080919205D70115968C9320C0CD2809F481
:1033300052C05F3F19F40F3F09F44DC0B11018C0DF
:1033400040E0652F802F5A8B0E94A2185A8988234B
:1033500079F08DE895E00E94ED17EDE8F5E086E064
:10336000DF011D928A95E9F70E94941810E031C19F
:103370005F3F11F40F3F79F1B1102DC040E0652F90
:10338000802F5A8B0E94A218182F5A89811123C0AE
:103390000D875E878D859E850E94C51D292F2295EC
:1033A0002F7030E02230310524F02430310534F024
:1033B0005EC09F7051F0811108C00BC19F7029F051
:1033C000F7019581907F09F404C190E2980F98303D
:1033D00008F04DC0FEC01B2DBB2009F4FAC080913F
:1033E0009205816080939205C1CF451308C03013C8
:1033F00006C0B11004C080919205D7019DC00D8711
:103400005E878D859E850E943018882381F1BB20C0
:1034100071F120919205822F82958F7090E0029732
:1034200074F080918D0590918E0598878F83198611
:10343000DB86CA862C87CE0107960E94ED1786E0B0
:10344000F701ADE8B5E001900D928A95E1F70E9491
:10345000C2180E94941811E0BCC0451761F00D8796
:103460005E878D859E850E943018811118C0C70126
:103470000E94ED17F0CF3013F2CFB110F0CF809152
:103480009205F7018583C7010E94ED1786E0EDE8FC
:10349000F5E0DF011D928A95E9F71A2D9AC0BB204D
:1034A00031F320919205822F82958F7090E00297E0
:1034B00034F280918D0590918E059A8389831B82C9
:1034C000DD82CC822E83CE010196B7CFC816D906F5
:1034D00028F0F601E81BF90BCF0104C08095909508
:1034E0008C0D9D1D883C910550F010E07C2DD98AF3
:1034F000C88A402F6B2D89890E94541845C01B2D06
:10350000BB2009F4B4CF45132EC030132CC020913A
:10351000920520FD1FC0822F82958F70D9F0D701B0
:1035200015962C9315978F3049F08F5F982F9295B1
:10353000907F822F8F70892B15968C93C7010E94E4
:10354000ED1786E0F701ADE8B5E001900D928A95A0
:10355000E1F73DC086E0F701ADE8B5E001900D92DE
:103560008A95E1F736C00D875E878D859E850E941E
:103570003018811164CF809192058160809392050B
:10358000C7010E94ED1725C0EDE8F5E086E0DF01F8
:103590001D928A95E9F71BC0BB2009F468CF0D87FF
:1035A0005E878D859E850E943018182F882309F428
:1035B0005ECF86E0F701ADE8B5E001900D928A9507
:1035C000E1F78DE895E00E9489130E94C2180E94DD
:1035D0009418812F62960FB6F894DEBF0FBECDBF50
:1035E000DF91CF911F910F91FF90EF90DF90CF90DF
:1035F000BF90AF9008951F93CF93DF93CDB7DEB701
:103600002C970FB6F894DEBF0FBECDBF4F835887FF
:1036100069877A878B879C87CE0107960E941D1940
:10362000882369F08F8198852A853B85232BF1F1CA
:103630009F3F09F063C08F3F09F060C037C086E04C
:10364000FE013796DE01119601900D928A95E1F701
:103650006F817885EA85FB85309741F17F3F11F4D2
:103660006F3F21F120915C0530E0C9010196877020
:10367000992740915B0550E08417950709F447C0EE
:1036800069837A83FD83EC8396E0929FD001939FB8
:10369000B00D1124A35ABA4FFE01319601900D923C
:1036A0009A95E1F780935C050E94731816E080916B
:1036B0005B0590915C058917C1F1189FC001112429
:1036C000835A9A4F0E941D19882379F1E0915B0576
:1036D0001E9FF0011124E35AFA4F4081518162810B
:1036E0007381848195810E94631880915B0590E0CD
:1036F00001968770992780935B05D9CF4F815885B4
:1037000069857A858B859C850E946318CFCF0E943E
:103710002C1810925C0510925B05EDE8F5E086E050
:10372000DF011D928A95E9F7C1CF2C960FB6F89468
:10373000DEBF0FBECDBFDF91CF911F910895EF92F5
:10374000FF920F931F93CF93DF938C01892B09F482
:103750006CC0F12CEE24E394E8012196F8018491E9
:10376000843740F4843008F051C0813081F08230D9
:1037700019F15BC0853709F444C0A8F19CE7980FA4
:10378000903708F052C08F770E94AA1441C00E5F94
:103790001F4FFE01C49180E28C0F883048F4C7703F
:1037A0008E2D01C0880FCA95EAF70E947A1E14C0B8
:1037B0008C2F0E949B132DC00E5F1F4FFE01C491E2
:1037C00080E28C0F883058F4C7708E2D01C0880FAE
:1037D000CA95EAF70E94801E0E94241E1AC08C2FF0
:1037E0000E94AA1416C00E5F1F4FFE01C491CC2385
:1037F00081F08FE99FE00197F1F700C00000C15010
:10380000F6CF0E5F1F4FFE01F49003C00E949B1382
:103810008E018F2D882309F49FCFEFE9FFE03197C8
:10382000F1F700C000008150F5CFDF91CF911F91DB
:103830000F91FF90EF90089508950E941C1C6093D3
:10384000CE057093CF058093D0059093D1050C944D
:10385000141808950C941D1C0F931F930091CE050E
:103860001091CF052091D0053091D105602B712B9F
:10387000822B932B1F910F910C941D1C0F931F9360
:103880000091CE051091CF052091D0053091D10542
:1038900060237123822393231F910F910C941D1C8D
:1038A0000F931F930091CE051091CF052091D00565
:1038B0003091D10560277127822793271F910F919F
:1038C0000C941D1C08950C94621C0E94631C609350
:1038D000CA057093CB058093CC059093CD050C94CD
:1038E000141860E070E0CB010C94651C0F931F93DB
:1038F00041E050E060E070E08A019B0104C0000FED
:10390000111F221F331F8A95D2F7C901B8011F91D9
:103910000F910C94651C0F931F9341E050E060E001
:1039200070E004C0440F551F661F771F8A95D2F7B9
:103930008091CA059091CB05A091CC05B091CD05A1
:103940008A019B01082B192B2A2B3B2BC901B8019B
:103950001F910F910C94651C0F931F9341E050E051
:1039600060E070E004C0440F551F661F771F8A9502
:10397000D2F740955095609570958091CA059091C9
:10398000CB05A091CC05B091CD058A019B01082300
:1039900019232A233B23C901B8011F910F910C94CD
:1039A000651C0F931F9341E050E060E070E004C09D
:1039B000440F551F661F771F8A95D2F78091CA055D
:1039C0009091CB05A091CC05B091CD058A019B01CA
:1039D000082719272A273B27C901B8011F910F91F2
:1039E0000C94651C0F931F930091CA051091CB0591
:1039F0002091CC053091CD05602B712B822B932B20
:103A00001F910F910C94651C0F931F930091CA0591
:103A10001091CB052091CC053091CD056023712309
:103A2000822393231F910F910C94651C0F931F9376
:103A30000091CA051091CB052091CC053091CD05A0
:103A400060277127822793271F910F910C94651C83
:103A50000895292F220F920F990F890FA82FA6954D
:103A6000A695A695877051E001C0550F8A95EAF793
:103A700085E0A89FD001112420E030E070E0F9013A
:103A8000EA0FFB1FED56FA4F4081CB01022E02C018
:103A9000969587950A94E2F78170992781958427F6
:103AA0008523842780832F5F3F4F2530310539F7E9
:103AB0000895292F220F920F990F890F682F66956D
:103AC00066956695982F977085E0689FB0011124E0
:103AD00040E050E080E0FA01E60FF71FED56FA4FA4
:103AE000208130E0092E02C0369527950A94E2F72E
:103AF00021703327042E01C0220F0A94EAF7822B8B
:103B00004F5F5F4F4530510531F70895CF92DF92F7
:103B1000EF92FF920F931F93CF93DF938C01C0908E
:103B2000CE05D090CF05E090D005F090D1058091E2
:103B3000CA059091CB05A091CC05B091CD05C82ABE
:103B4000D92AEA2AFB2ACFE1D0E0D701C6010C2E00
:103B500004C0B695A795979587950A94D2F780FFEC
:103B600006C0B8018C2F0E943209019721F42197D9
:103B700060F780E001C08C2FDF91CF911F910F91F2
:103B8000FF90EF90DF90CF900895CF93DF93EC01FB
:103B90000E94861DBE010E943209DF91CF910895D7
:103BA0001F93CF93DF93EB0190915805992321F058
:103BB000CB010E94C51D13C0882349F0CB010E9490
:103BC000861D182F682FCE010E94291D04C0CB012D
:103BD0000E94591D182FBE01812F0E943209DF91CA
:103BE000CF911F9108958091D205859585958595F2
:103BF00008958091D2058770089598E0899F90017B
:103C00001124262B2093D2050C948B1C2091D205D5
:103C1000809582238093D205982F977069F430E0C5
:103C2000482F082E000C550B2417350729F08595D1
:103C3000859585950C94AC1C08959091D20597704C
:103C400081E009F480E00895E0915003F091510380
:103C50008091F6058083E0915003F09151039081AB
:103C60008091F505892B8083E0915003F0915103F9
:103C700090818091F405892B80838091D3058823DE
:103C800081F0E0915003F09151039081892B808362
:103C900080915003909151030E94241F8111109232
:103CA000D30580915003909151030C941B12809185
:103CB000F60508959091F605892B8093F6050895F1
:103CC00080959091F60589238093F60508951092CA
:103CD000F60508959091F505892B8093F5050895D3
:103CE00080959091F50589238093F50508951092AC
:103CF000F50508959091F405892B8093F4050895B6
:103D000080959091F40589238093F405089510928D
:103D1000F40508958093D30508951092D30508956E
:103D2000CF92DF92EF92FF926C01EE24FF24C11438
:103D3000D104E104F10421F0C701B60120E101C082
:103D400020E0C72ED82EE92EFF24C114D104E104AF
:103D5000F10419F0285FC701B6016B017C0154E042
:103D6000F694E794D794C7945A95D1F7C114D10427
:103D7000E104F10419F02C5FC701B6016B017C016D
:103D800042E0F694E794D794C7944A95D1F7C114CA
:103D9000D104E104F10419F02E5FC701B601DC0182
:103DA000CB01B695A79597958795892B8A2B8B2B59
:103DB00009F02F5F822FFF90EF90DF90CF90089552
:103DC0006DEE7EEF80E090E00E94023060E082E0E5
:103DD00090E00E94F02F60E083E090E00E94F02FDE
:103DE00060E084E090E00E94F02F60E085E090E0E9
:103DF0000E94F02F6FEF87E090E00C94F02F80E0AE
:103E000090E00E94EA2F21E08D3E9E4F09F020E0D5
:103E1000822F089582E090E00C94E22F83E090E0FE
:103E20000C94E22F84E090E00C94E22F682F84E061
:103E300090E00C94F02F87E090E00C94E22F682F34
:103E400087E090E00C94F02FFC0131969C01205EFD
:103E50003F4F80E0919191118F5FE217F307D1F707
:103E600008959C01FC0132969FEF80E04191461736
:103E700089F09F3F19F4411101C0982F8F5F8E3157
:103E8000A9F79F3F39F0F901E90FF11D97FDFA9568
:103E9000628308950895FC0132968096208126134E
:103EA00001C010823196E817F907C1F70895262F4F
:103EB0002695269526952F3168F4FC01E20FF11D19
:103EC000677021E030E001C0220F6A95EAF7818136
:103ED000282B21830895262F2695269526952F3168
:103EE00070F4FC01E20FF11D677021E030E001C0C9
:103EF000220F6A95EAF7209581812823218308956E
:103F000020916103222329F02091370627FD0C948C
:103F1000571F0C94311F20916103222329F0209117
:103F2000370627FD0C946B1F0C944B1FFC01319638
:103F300080961192E817F907E1F7089580913D0600
:103F4000843039F11092F80520E488E190E00FB652
:103F5000F894A895809360000FBE2093600080E0E5
:103F60000E94370783B7817F846083BF83B78160F6
:103F700083BF7894889583B78E7F83BF0FB6F894FC
:103F8000A895809160008861809360001092600025
:103F90000FBE08950895CF930E9486040E94D30413
:103FA0000E94CA1FC0E08C2F0E943C05811104C0F2
:103FB000CF5FCE30C1F701C081E0CF9108950E945C
:103FC0002C180E940F120C9437071F920F920FB6F5
:103FD0000F9211248F939F93AF93BF938091F80515
:103FE000811113C08091330690913406A09135065B
:103FF000B09136064196A11DB11D80933306909372
:104000003406A0933506B0933606BF91AF919F91C9
:104010008F910F900FBE0F901F90189582E084BD76
:1040200093E095BD9AEF97BD80936E0008952FB7EA
:10403000F8948091330690913406A0913506B091A2
:1040400036062FBF0895CF92DF92EF92FF920F9323
:104050001F932FB7F8944091330650913406609126
:104060003506709136062FBF6A017B01EE24FF24CE
:104070008C0120E030E0C016D106E206F30610F411
:10408000415051099A01281B390BC9011F910F9109
:10409000FF90EF90DF90CF90089578941F920F9249
:1040A0000FB60F9211248F939F93AF93BF9380917C
:1040B000330690913406A0913506B09136060196EC
:1040C000A11DB11D8093330690933406A09335064D
:1040D000B0933606BF91AF919F918F910F900FBE15
:1040E0000F901F901895F89481E08093E00080E293
:1040F0008093D800E9ECF0E010828FE19EE4019714
:10410000F1F700C000001DBA109268001CBC10BE80
:104110001FBA10927A0010926E0010926F001092E7
:104120007100109272001082ECEBF0E0108214B873
:1041300017B81AB81DB810BA108215B818B81BB83D
:104140001EB811BA0C94003F08950E94FF1E811101
:1041500002C00E94E01E0E940A1F8093F7050E9481
:10416000121F90E090933806809337060E940E1F2E
:10417000682F70E080E090E00C942A1C8091FC0590
:1041800080FF0BC06091550385E0689FB00111244A
:1041900075956795759567952BC081FF09C06091EE
:1041A000550385E0689FB00111247595679520C07F
:1041B00082FF07C06091550385E0689FB00111241C
:1041C00017C09091FD059923D1F060915403961783
:1041D00088F72091550385E0289F90011124929F34
:1041E000A001939F500D112470E0CA010E94B42FCA
:1041F0006038710540F46115710539F002C065E061
:1042000070E0862F08958FE7089581E008958091EA
:10421000FC0580FF08C06091530370E075956795B9
:104220007595679521C081FF06C06091530370E0CA
:104230007595679519C082FF04C06091530370E0C3
:1042400010C09091FD059923C1F06091520396171B
:10425000A0F780915303899FC001112470E00E9450
:10426000B42F6038710528F46115710521F0862F8F
:1042700008958FE7089581E0089561E070E0F4CF3C
:10428000803F21F40E94BE20819504C0813F29F423
:104290000E94BE20809300060895823F21F40E9470
:1042A000BE20819504C0833F29F40E94BE208093E4
:1042B000FF050895893F19F40E94072105C08A3F30
:1042C00031F40E94072181958093010608958B3F68
:1042D00021F40E940721819504C08C3F29F40E949B
:1042E0000721809302060895843F21F48091FE0502
:1042F000816017C0853F21F48091FE05826011C066
:10430000863F21F48091FE0584600BC0873F21F435
:104310008091FE05886005C0883F31F48091FE05DC
:1043200080618093FE0508958D3F21F48091FC0506
:1043300081600BC08E3F21F48091FC05826005C036
:104340008F3F29F48091FC0584608093FC050895DB
:10435000803F39F48091000687FF6CC01092000600
:1043600069C0813F29F4809100061816BCF362C031
:104370009091FF05823F29F497FF5CC01092FF05E2
:1043800059C0833F19F41916CCF354C0893F41F446
:104390008091010618160CF04DC0109201064AC01B
:1043A0008A3F29F48091010687FF44C0F6CF8B3FF6
:1043B00039F48091020687FF3DC0109202063AC090
:1043C0008C3F29F4809102061816BCF333C0843F59
:1043D00021F48091FE058E7F17C0853F21F48091E6
:1043E000FE058D7F11C0863F21F48091FE058B7FF5
:1043F0000BC0873F21F48091FE05877F05C0883F71
:1044000031F48091FE058F7E8093FE0513C08D3FB1
:1044100021F48091FC058E7F0BC08E3F21F48091AA
:10442000FC058D7F05C08F3F29F48091FC058B7FB3
:104430008093FC058091FF0581110EC080910006DC
:1044400081110AC080910106811106C08091020687
:10445000811102C01092FD0508958EEF95E00E9433
:1044600026120E9417209093FA058093F90508956B
:104470001F93CF93DF938091F9059091FA050E94E5
:104480002320AC019091FD05992321F02091560342
:1044900030E006C02091FB058AE0289F900111249E
:1044A0004217530708F46EC08091FF05C0910006C3
:1044B000D091010610910206811107C0C1115EC0A2
:1044C000D1115CC011115AC05DC09F3F19F09F5FB0
:1044D0009093FD05181624F40E94BE208093FF05DA
:1044E0008091FF0587FF05C00E94BE2081958093C3
:1044F000FF051C1624F40E94BE20809300068091C4
:10450000000687FF05C00E94BE20819580930006AB
:104510004091FF05442379F030910006332359F090
:1045200025EB4203A00111245093FF053203C00183
:104530001124909300061D1624F40E9407218093F5
:1045400001068091010687FF05C00E940721819521
:1045500080930106111624F40E940721809302061D
:104560008091020687FF05C00E94072181958093F4
:104570000206DF91CF911F910C942D229F3F09F0ED
:10458000A6CFAECFDF91CF911F910895EEEFF5E06A
:1045900085E0DF011D928A95E9F71092FD051092E2
:1045A000FC050895833081F128F4813059F0823080
:1045B000D1F00895853009F449C0B8F1863009F486
:1045C00056C008958091FB05262F30E0280F311D3D
:1045D0002F3F310524F4680F6093FB0508958FEF9A
:1045E0008093FB05089580915603262F30E0280F15
:1045F000311D2F3F310524F4680F60935603089551
:104600008FEF80935603089580915503262F30E055
:10461000280F311D2F3F310524F4680F6093550397
:1046200008958FEF80935503089580915403262FAA
:1046300030E0280F311D2F3F310524F4680F6093BF
:10464000540308958FEF809354030895809153038A
:10465000262F30E0280F311D2F3F310524F4680F3D
:104660006093530308958FEF8093530308958091CF
:104670005203262F30E0280F311D2F3F310524F43F
:10468000680F6093520308958FEF8093520308954B
:10469000833011F128F4813049F0823091F008958F
:1046A000853081F120F18630C1F108958091FB05BC
:1046B000681720F4861B8093FB0508951092FB0574
:1046C000089580915603681720F4861B8093560343
:1046D000089510925603089580915503681720F4A9
:1046E000861B809355030895109255030895809179
:1046F0005403681720F4861B809354030895109286
:104700005403089580915303681720F4861B809307
:10471000530308951092530308958091520368172C
:1047200020F4861B8093520308951092520308953B
:104730000F931F93873208F04DC08E3108F08EC062
:10474000803109F478C008F5873009F466C068F450
:10475000863009F09EC08091F705817F8E7F80931F
:10476000F70581E08093040695C08B3009F48AC078
:104770008E3009F08EC08091F70582FB222720F948
:1047800091E0922790FB82F95FC0863109F47AC0EC
:1047900088F4813109F07DC00E942C188091370681
:1047A00087FB222720F991E0922790FB87F98093DD
:1047B000370668C0893109F465C08B3109F069C0DA
:1047C0008091F70581FB222720F991E0922790FB49
:1047D00081F93AC0883309F455C050F4893209F49C
:1047E00053C0853309F450C0873209F44DC051C01D
:1047F000833409F449C028F48A3308F44AC0895341
:104800002EC0883409F045C00E942C180E94DF0C8D
:104810000E9439070E94732035C08091F705982FB8
:104820009095917090FB80F98093F70591112AC0C3
:10483000897F877F10C08091F70583FB222720F9AD
:1048400091E0922790FB83F98093F7059923D1F0AB
:104850008091F70581608093F70514C08D5141E088
:1048600050E060E070E08A019B0104C0000F111F5E
:10487000221F331F8A95D2F7C901B8010E942A1C52
:104880000E942C1881E006C061E070E080E090E0BA
:10489000F5CF80E01F910F91089580E0089580E0AA
:1048A00008958E518A3030F4E82FF0E0E35DFB4F3D
:1048B0008081089580E00895CF93C82F80910406E9
:1048C000813079F018F08230E9F185C0E091500331
:1048D000F09151038081813169F0823209F07DC00D
:1048E00009C0E0915003F09151038081813111F0B2
:1048F000823261F48C2F0E944D24811104C08C2FD0
:104900000E9498231DC081E090E01AC08C2F0E9465
:104910004F24811114C0C43179F048F4CB3079F0C0
:10492000C03109F05EC082E08093040608C0C9323D
:1049300019F0C83321F055C01092040652C081E02E
:10494000817051C0C93279F108F5C43161F1A0F428
:10495000C73009F044C01092FB0584E180935603F0
:10496000C09355038CE38093540388E080935303F2
:1049700088E28093520333C082EE8C0F863078F544
:104980008C2F0E9451248093030629C0CE34E9F075
:1049900020F4CB3421F56AE013C0C13579F0C2357B
:1049A000F1F461E00DC080910306882319F01092A4
:1049B000030615C081E08093040615C061E006C0BF
:1049C000809103060E94D2220AC06AE08091030609
:1049D0000E94482304C01092040680E004C081E0D5
:1049E00002C080E0ADCFCF91089580912506089553
:1049F0000F931F93CF93DF9300D01F92CDB7DEB7F5
:104A00008C010E946E27823011F0843019F593E0FA
:104A100099831B830A839093E9008FEF9091E800BC
:104A2000815095FD06C095ED9A95F1F70000811132
:104A3000F5CF8091E80085FF0DC040E050E063E0D5
:104A400070E0CE0101960E948B278091E8008E775E
:104A50008093E8000F900F900F90DF91CF911F91FE
:104A60000F910895CF93DF9300D01F92CDB7DEB79B
:104A700020913D06243031F522E0298380589109A8
:104A80009B838A8383E08093E9008FEF9091E80015
:104A9000815095FD06C095ED9A95F1F700008111C2
:104AA000F5CF8091E80085FF0DC040E050E063E065
:104AB00070E0CE0101960E948B278091E8008E77EE
:104AC0008093E8000F900F900F90DF91CF910895A1
:104AD000CF93DF93EC010E946E27823011F0843077
:104AE000F9F482E08093E9009FEF8091E800915013
:104AF00085FD06C085ED8A95F1F700009111F5CF8F
:104B00008091E80085FF0CC040E050E065E070E077
:104B1000CE010E948B278091E8008E778093E80079
:104B2000DF91CF910895CF93DF93EC010E946E2720
:104B3000823019F0843009F047C0809161038823E6
:104B4000E1F08091370687FF18C084E08093E90088
:104B50008FEF9091E800815095FD06C095E19A9500
:104B6000F1F700008111F5CF8091E80085FF2CC09E
:104B700040E050E060E270E017C081E08093E9001F
:104B80008FEF9091E800815095FD06C095ED9A95C4
:104B9000F1F700008111F5CF8091E80085FF14C086
:104BA00040E050E068E070E0CE010E948B278091E9
:104BB000E8008E778093E80080E2FE01A5E0B6E091
:104BC00001900D928A95E1F7DF91CF910895809140
:104BD0003C06811109C00E9420290E947D298091F4
:104BE000E20084608093E200089510923C060895EC
:104BF000089508950C94DF1F42E061EC81E00E946B
:104C00009A2842E061EC82E00E949A2842E061EC3E
:104C100083E00E949A2842E261EC84E00C949A2896
:104C200080913F06833009F455C030F4813071F033
:104C3000823009F48EC008958A3009F47AC08B302E
:104C400009F460C0893009F09CC020C080913E0604
:104C5000813A09F096C08091E800877F8093E80050
:104C60008091420690914306892B21F460E285E011
:104C700096E003C060E080E090E070E00E94D627FC
:104C80008091E8008B778093E800089580913E063C
:104C9000813209F076C080914206909143060097D8
:104CA00019F0039709F06DC08091E800877F809329
:104CB000E8008091E80082FD05C080913D068111E9
:104CC000F8CF5FC08091F100809325068091E800C5
:104CD0008B7753C080913E06813A09F052C0809193
:104CE000420690914306892B09F04BC08091E80061
:104CF000877F8093E8008091E80080FFFCCF80915F
:104D0000610336C080913E068132D9F5809142061A
:104D100090914306892BA9F58091E800877F8093C5
:104D2000E8000E94CF2880914006809361030C9494
:104D30002C1880913E06813221F58091E800877F12
:104D40008093E8000E94CF28809141068093260638
:104D5000089580913E06813AA1F48091E800877F12
:104D60008093E8008091E80080FFFCCF80912606C8
:104D70008093F1008091E8008E778093E8000C9496
:104D8000CF28089584B7877F84BF0FB6F894A8957D
:104D900080916000886180936000109260000FBE77
:104DA00080E880936100109261000E945E120E9470
:104DB00020290E947D298091E20084608093E20096
:104DC00078940E940C2C0E94621287E593E00E9466
:104DD0000A1280913D06853069F40E949E1F8091E1
:104DE0003B068823B1F30E94CB1F882391F30E94D6
:104DF0007527EFCF0E946812ECCF0C94FF26292F65
:104E0000332723303105C9F064F42130310581F0B6
:104E10002230310509F049C08DE690E022E635E008
:104E200048C02132310521F12232310571F13DC0F6
:104E300082E190E02FEC35E03CC09927813091056C
:104E400071F02CF4892B89F5EEE5F5E00DC0823088
:104E5000910541F0039749F5E8E2F5E005C0E6E485
:104E6000F5E002C0EEE2F5E0849190E09F0121C000
:104E700064307105D0F4660F771FFB01ED5BFB4FCB
:104E80002081318189E090E014C06430710568F4BC
:104E9000FB01EE0FFF1FE55CFB4F20813181FB0121
:104EA000E95CFB4F808190E004C080E090E020E06E
:104EB00030E0FA013183208308950895CF93C82FFD
:104EC0000E945D27C0932706CF91089580913D06EB
:104ED000843011F081E0089582E0089580912706E2
:104EE000811102C00C946627089580E189BD82E19A
:104EF00089BD09B400FEFDCF8091D8008F7D8093DD
:104F0000D8008091E00082608093E0008091E00012
:104F100081FDFCCF0895CF92DF92EF92FF920F9325
:104F20001F93CF93DF93EC018B016A010E94EE285F
:104F3000811133C0C114D10439F0F601808191810F
:104F4000081B190BC80FD91FE12CF12C01151105F5
:104F500019F18091E80085FD16C08091E8008E77F8
:104F60008093E800C114D10449F0F6018081918159
:104F7000E80EF91EF182E08285E00FC00E94EE2863
:104F8000882321F30AC089918093F100015011090F
:104F9000FFEFEF1AFF0ADACF80E0DF91CF911F9188
:104FA0000F91FF90EF90DF90CF90089520914406ED
:104FB000309145062617370748F06115710539F419
:104FC0002091E8002E772093E80001C0B90140E06D
:104FD00061157105A9F120913D06222309F443C012
:104FE000253009F442C02091E80023FD40C0209103
:104FF000E80022FD32C02091E80020FFE9CF409177
:10500000F3002091F20030E0342BFC01CF01611558
:10501000710559F02830310540F481918093F100F9
:10502000615071092F5F3F4FF1CF41E028303105CA
:1050300009F040E02091E8002E772093E800C8CFE7
:105040004111C9CF0AC080913D06882361F08530A7
:1050500061F08091E80083FD0AC08091E80082FF42
:10506000F2CF80E0089582E0089583E0089581E022
:10507000089520914406309145062617370748F0D9
:105080006115710539F42091E8002E772093E8002E
:1050900001C0B901FC0120E06115710591F1809119
:1050A0003D06882309F440C0853009F43FC0809153
:1050B000E80083FD3DC08091E80082FD2FC0809113
:1050C000E80080FFE9CF2091F3008091F20090E0AA
:1050D000922B6115710559F08830910540F42491A7
:1050E0002093F1003196615071090196F2CF21E0D1
:1050F000089709F020E08091E8008E778093E8001F
:10510000CBCF2111CCCF0AC080913D06882361F01E
:10511000853061F08091E80083FD0AC08091E8004D
:1051200082FFF2CF80E0089582E0089583E0089541
:1051300081E00895982F973058F59093E9009817DB
:1051400039F07091EC002091ED005091F00003C017
:10515000242F762F50E021FF19C03091EB003E7FC5
:105160003093EB003091ED003D7F3093ED003091B6
:10517000EB0031603093EB007093EC002093ED0076
:105180005093F0002091EE0027FF07C09F5FD3CF20
:105190008F708093E90081E0089580E00895809108
:1051A0003E0687FF11C08091E80082FD05C0809116
:1051B0003D068111F8CF11C08091E8008B770BC0BC
:1051C00080913D06882349F08091E80080FFF8CF68
:1051D0008091E8008E778093E80008952091E400A4
:1051E0003091E50095E64091EC00842F817040FFFE
:1051F00022C08091E80080FD1CC080913D0688237C
:1052000091F0853091F08091EB0085FD10C04091C8
:10521000E4005091E5004217530729F39A01915099
:1052200011F784E0089582E0089583E0089581E015
:10523000089580E008954091E80042FFDECF089590
:105240000E948E290E949629E0EEF0E08081816024
:105250008083E8EDF0E080818F77808319BCA7ED33
:10526000B0E08C918E7F8C9380818F7E80831092B2
:105270003C0608950F931F93CF93DF930E948E29CE
:105280000E949629C8EDD0E088818F778883888135
:105290008068888388818F7D888319BC10923D0641
:1052A0001092390610923B0610923A0600EE10E07A
:1052B000F80180818B7F808388818160888342E0D0
:1052C00060E080E00E949A28E1EEF0E080818E7F2D
:1052D0008083E2EEF0E0808181608083808188605D
:1052E0008083F80180818E7F8083888180618883BC
:1052F000DF91CF911F910F910895E8EDF0E080814B
:105300008F7E8083E7EDF0E080818160808384E0A0
:1053100082BF81E080933C060C943A29E8EDF0E0EE
:1053200080818E7F80831092E20008951092DA00CF
:105330001092E10008951F920F920FB60F92112460
:105340002F933F934F935F936F937F938F939F938D
:10535000AF93BF93EF93FF938091E10082FF0BC067
:105360008091E20082FF07C08091E1008B7F8093F3
:10537000E1000E940B2C8091DA0080FF1FC0809119
:10538000D80080FF1BC08091DA008E7F8093DA0006
:105390008091D90080FF0DC080E189BD82E189BD87
:1053A00009B400FEFDCF81E080933D060E94E72511
:1053B00005C019BC10923D060E94F5258091E100C0
:1053C00080FF19C08091E20080FF15C08091E2004B
:1053D0008E7F8093E2008091E20080618093E20002
:1053E0008091D80080628093D80019BC85E08093BA
:1053F0003D060E94F9258091E10084FF30C0809134
:10540000E20084FF2CC080E189BD82E189BD09B43E
:1054100000FEFDCF8091D8008F7D8093D8008091D1
:10542000E1008F7E8093E1008091E2008F7E809387
:10543000E2008091E20081608093E2008091390671
:10544000882311F084E007C08091E30087FD02C04B
:1054500081E001C083E080933D060E94FA2580919F
:10546000E10083FF29C08091E20083FF25C0809185
:10547000E100877F8093E10082E080933D061092F7
:1054800039068091E1008E7F8093E1008091E200F7
:105490008E7F8093E2008091E20080618093E20041
:1054A00042E060E080E00E949A288091F0008860ED
:1054B0008093F0000E94F825FF91EF91BF91AF918A
:1054C0009F918F917F916F915F914F913F912F911C
:1054D0000F900FBE0F901F9018951F920F920FB64E
:1054E0000F9211242F933F934F935F936F937F936A
:1054F0008F939F93AF93BF93CF93DF93EF93FF93DC
:10550000C091E900CF708091EC00D82FD17080FD60
:10551000D0E81092E9008091F000877F8093F0003E
:1055200078940E94B12A1092E9008091F00088607E
:105530008093F000CD2BCF70C093E900FF91EF91E5
:10554000DF91CF91BF91AF919F918F917F916F919B
:105550005F914F913F912F910F900FBE0F901F9031
:1055600018951F93CF93DF93CDB7DEB7AA970FB6E9
:10557000F894DEBF0FBECDBFEEE3F6E088E08E0FFD
:105580009091F10091938E13FBCF0E941026809191
:10559000E80083FF28C180913E0690913F06492F85
:1055A00050E04A30510508F01EC1FA01EE55FF4F98
:1055B0000C94C82F803821F0823809F014C108C03B
:1055C00080913A0690913B06992389F082600FC042
:1055D000809142068F70873008F005C18093E90002
:1055E0008091EB0085FB882780F91092E90090916B
:1055F000E800977F9093E8008093F1001092F1000B
:10560000D0C0282F2D7F09F0EEC0882319F08230FA
:1056100061F0E9C080914006813009F0E4C0933028
:1056200009F080E080933B062EC0809140068111F6
:105630002AC0809142068F702FEF280F263008F085
:10564000D2C08093E9002091EB0020FF1CC0933072
:1056500021F48091EB00806214C09091EB00906186
:105660009093EB0021E030E0A90102C0440F551FE8
:105670008A95E2F74093EA001092EA008091EB00ED
:1056800088608093EB001092E9008091E800877FAA
:105690008093E8000E94CF28A6C08111A4C0109179
:1056A00040061F778091E3008078812B8093E30090
:1056B0008091E800877F8093E8000E94CF28809146
:1056C000E80080FFFCCF8091E30080688093E300D6
:1056D000111102C082E001C083E080933D0683C0C7
:1056E0008058823008F07FC080914006909141063A
:1056F0008C3D53E0950779F583E08A838AE28983BC
:105700004FB7F894DE01139620E03EE051E2E32F1C
:10571000F0E050935700E49120FF03C0E295EF7052
:105720003F5FEF708E2F90E0EA3010F0C79601C017
:10573000C0968D939D932F5F243149F74FBF809181
:10574000E800877F8093E8006AE270E0CE0101966E
:105750000E94D62715C06091420670914306AE01A3
:105760004F5F5F4F0E94FD26BC01892BE1F19091B4
:10577000E800977F9093E80089819A810E943928F8
:105780008091E8008B778093E8002DC0803859F530
:105790008091E800877F8093E800809139068093AC
:1057A000F1008091E8008E7773CF81111CC0909139
:1057B00040069230C0F48091E800877F8093E80033
:1057C000909339060E94CF2880913906811106C036
:1057D0008091E30087FD02C081E001C084E08093F6
:1057E0003D060E94FC258091E80083FF0AC080915D
:1057F000E800877F8093E8008091EB0080628093CF
:10580000EB00AA960FB6F894DEBF0FBECDBFDF91B6
:10581000CF911F9108950895CF9380913D068823DD
:10582000A1F0C091E900CF709091EC00892F8170B8
:1058300090FD80E8C82B1092E9008091E80083FD7C
:105840000E94B12ACF70C093E900CF9108950E94C1
:10585000DB2C08F481E008950E94402C0C94162D56
:105860000E940F2D58F00E94082D40F029F45F3F50
:1058700029F00C94FF2C51110C944A2D0C94052DF9
:105880000E94272D68F39923B1F3552391F3951BBB
:10589000550BBB27AA2762177307840738F09F5F51
:1058A0005F4F220F331F441FAA1FA9F335D00E2EBE
:1058B0003AF0E0E832D091505040E695001CCAF72B
:1058C0002BD0FE2F29D0660F771F881FBB1F2617EE
:1058D00037074807AB07B0E809F0BB0B802DBF01C5
:1058E000FF2793585F4F3AF09E3F510578F00C9494
:1058F000FF2C0C944A2D5F3FE4F3983ED4F3869539
:1059000077956795B795F7959F5FC9F7880F911DB4
:105910009695879597F90895E1E0660F771F881FA0
:10592000BB1F621773078407BA0720F0621B730B53
:10593000840BBA0BEE1F88F7E0950895E89409C030
:1059400097FB3EF490958095709561957F4F8F4FB2
:105950009F4F9923A9F0F92F96E9BB279395F695C8
:10596000879577956795B795F111F8CFFAF4BB0F46
:1059700011F460FF1BC06F5F7F4F8F4F9F4F16C0AA
:10598000882311F096E911C0772321F09EE8872F34
:10599000762F05C0662371F096E8862F70E060E0F0
:1059A0002AF09A95660F771F881FDAF7880F969569
:1059B000879597F90895990F0008550FAA0BE0E80D
:1059C000FEEF16161706E807F907C0F012161306C1
:1059D000E407F50798F0621B730B840B950B39F401
:1059E0000A2661F0232B242B252B21F408950A2667
:1059F00009F4A140A6958FEF811D811D089597F9A7
:105A00009F6780E870E060E008959FEF80EC089564
:105A100000240A941616170618060906089500248D
:105A20000A9412161306140605060895092E039407
:105A3000000C11F4882352F0BB0F40F4BF2B11F47B
:105A400060FF04C06F5F7F4F8F4F9F4F089557FDDA
:105A50009058440F551F59F05F3F71F04795880FDC
:105A600097FB991F61F09F3F79F087950895121673
:105A700013061406551FF2CF4695F1DF08C016161F
:105A800017061806991FF1CF8695710561050894D0
:105A90000895E894BB2766277727CB0197F90895E7
:105AA0000E94DB2C08F48FEF08950E94682D0C945F
:105AB000162D0E94082D38F00E940F2D20F09523FE
:105AC00011F00C94FF2C0C94052D11240C944A2DEC
:105AD0000E94272D70F3959FC1F3950F50E0551F3D
