:100000000C94D8030C94F5030C94F5030C94F503AD
:100010000C94F5030C94F5030C94F5030C94F50380
:100020000C94F5030C94F5030C94E82C0C94BC2D63
:100030000C948A230C94F5030C94F5030C94F503AB
:100040000C94F5030C94F5030C94F5030C94F50350
:100050000C94F5030C94F0230C94F5030C94F50325
:100060000C94F5030C94F5030C94F5030C94F50330
:100070000C94F5030C94F5030C94F5030C94F50320
:100080000C94F5030C94F5030C94F5030C94F50310
:100090000C94F5030C94F5030C94F5030C94F50300
:1000A0000C94F5030C94F5030C94F50307634236A6
:1000B000B79BD8A71A39685618AEBAAB558C1D3CF9
:1000C000B7CC5763BD6DEDFD753EF6177231BF00BD
:1000D0000000803F08000000BE922449123EABAAF7
:1000E000AA2ABECDCCCC4C3E00000080BEABAAAA52
:1000F000AA3E00000000BF000000803F000000009A
:1001000000084178D3BB4387D1133D190E3CC3BDD2
:100110004282AD2B3E68EC8276BED98FE1A93E4C7F
:1001200080EFFFBE01C4FF7F3F000000000028E217
:1001300095AFC2B0E296A1C2B0EFBC89E295AFEF35
:10014000B8B520E294BBE29481E294BB00C2AF5CFC
:100150005F28E38384295F2FC2AF002C033142293B
:1001600043E100500000001E00140004681D6101FE
:10017000004D001F001A0016001B6401002A002019
:1001800000080007000600E3002C0021001500090C
:100190000019004F004A00220017000A0005000065
:1001A0000001000100010000000100000001000149
:1001B000000100000001000000010023001C000BF2
:1001C00000110000004600240018000D001000522D
:1001D000004E0025000C000E0036000030280026DE
:1001E0000012000F00376401302B0027001300338A
:1001F00068386101004B0067002F0034002D625108
:1002000000000000000000000000000000000000EE
:1002100000000000000000000000000000000000DE
:1002200000000000000000000000000000000000CE
:1002300000000000000000000000000000000000BE
:1002400000000000000000000000000000000000AE
:10025000000000000000000000000000000000009E
:10026000000000000000000000000000000000008E
:10027000000000000000000000000000000000007E
:10028000000000000000000000000000000000006E
:10029000000000000000000000000000000000005E
:1002A0000000000000000000000000010035020115
:1002B0000001000100000001003A00E200E000013E
:1002C00000010001003B003F00430001000100016C
:1002D000003C00400044000100010001003D0041DD
:1002E0000044000100010001003E00420045000002
:1002F00000010001000100000001000000010001F8
:1003000000010000000100000001000100010001E7
:10031000000100000001000100240021001E002750
:100320000001000100250022001F0036000100012D
:10033000002600230020003700010001005600576E
:10034000002800010001000100010001000100017E
:100350000000003A00010001000100010000003B24
:10036000001E0201002202010001003C001F0221C8
:1003700002230201004C003D002F02D75C2F000138
:10038000002B003E003002D85C3000010001003F2D
:1003900000310235003502000001000100010000BB
:1003A0000001000000010001000100000001000048
:1003B000000100400024022E020100000001004163
:1003C0000001002D00010001000100420001002594
:1003D000020100010001004300010038000100019A
:1003E000000100440001002E000100010001004551
:1003F00000010001000100010000000100010001F6
:100400000001000100000001000100E20001000104
:1004100000010001000100010001000100010001D4
:10042000000100010001000100E10001000100E302
:1004300000010001000100010001000100010000B5
:1004400000010001000100000001000000010001A6
:100450000001000000010000000100010001005047
:100460000001000000010001004B0051004E00019E
:100470000001000100AC0052000100010001000178
:1004800000AB004F00A800010001000100A900AE70
:1004900000AA000100010001000100AB0001000101
:1004A000000000160007000000000000000000002F
:1004B000002A2B28000000000000000000000000BF
:1004C0000000000029000000002C1E3420212224FE
:1004D000342627252E362D3738271E1F202122238C
:1004E0002425263333362E37381F0405060708091E
:1004F0000A0B0C0D0E0F10111213141516171819E4
:100500001A1B1C1D2F3130232D3504050607080941
:100510000A0B0C0D0E0F10111213141516171819C3
:100520001A1B1C1D2F3130354C000000000000004C
:1005300000000000000000000000000000000000BB
:1005400000000000000000000000000000000000AB
:10055000000000000000000000000000000000009B
:10056000000000000000000000000000000000008B
:10057000000000000000000000000000000000007B
:10058000000000000000000000000000000000006B
:10059000000000000000000000000000000000005B
:1005A000000000000000000000000000000000004B
:1005B000000000000000000000000000000000003B
:1005C0000000000000000000000001010101010125
:1005D0000001010101000000000000000000000017
:1005E0000000000100010001010101010101010100
:1005F00001010101010101010101010101010101EB
:1006000001010101000000010100000000000000E4
:1006100000000000000000000000000000000000DA
:100620000000000001010101000403300000001679
:10063000034500720067006F0044006F00780020DF
:100640000045005A00000016034500720067006F65
:100650000044006F007800200045005A00000004AC
:1006600003090409023B00020100A0FA090400008A
:1006700001030101000921110100012240000705C9
:10068000810308000A090401000103000000092198
:100690001101000122C0000705820320000A120197
:1006A000100100000008EDFE071301000102030124
:1006B00005010902A10185020901A100050919012D
:1006C0002905150025019505750181029501750320
:1006D00081010501093009311581257F95027508D1
:1006E000810609381581257F950175088106050C5D
:1006F0000A38021581257F950175088106C0C0055D
:10070000010980A10185031A81002A8300160100D6
:10071000260300950175108100C0050C0901A10197
:1007200085041A01002A9C02160100269C029501EC
:1007300075108100C005010906A10185050507198D
:10074000E029E715002501950875018102050719C3
:100750000029EF1500250195F075018102050819A2
:10076000012905950575019102950175039101C057
:1007700005010906A101050719E029E71500250172
:100780009508750181029501750881010507190019
:1007900029FF150026FF0095067508810005081938
:1007A000012905950575019102950175039101C017
:1007B00011241FBECFEFDAE0DEBFCDBF14E0A0E012
:1007C000B1E0EAE0FAE602C005900D92AC36B1075E
:1007D000D9F726E0ACE6B4E001C01D92A333B2071E
:1007E000E1F70E94142A0C949C340C94000080B30E
:1007F0008C7080BB81B3836F81BB089584B1807F8F
:1008000084B985B1807F85B98AB1837F8AB98BB17C
:10081000837F8BB93E9846980895CF93C82F873031
:1008200070F58091060190910701892B89F564E6A6
:1008300070E080E40E947014909307018093060199
:10084000892BD1F464E670E082E10E94CC1490938D
:10085000070180930601892B79F481E090E001C0C3
:10086000880FCA95EAF764E670E080950E94CC1480
:100870009093070180930601CF910C941F158A3045
:10088000B9F040F4883071F0893079F0209A2898D6
:10089000CF9108958C3091F070F08D30B9F73E9A79
:1008A0004698F6CF219A2998F3CF229A2A98F0CF2A
:1008B000239A2B98EDCF529A5A98EACF539A5B9885
:1008C000E7CFCF93873008F040C080910601909128
:1008D0000701C0E0892B71F464E670E080E40E94B7
:1008E00070149093070180930601892B31F0C0E0CA
:1008F0000E941F158C2FCF91089564E670E083E16C
:100900000E94CC149093070180930601892B79F7FC
:1009100064E670E081E40E94701490930701809374
:100920000601892B21F784E690E00E94FB1497FFD3
:1009300005C09093070180930601D9CFC82FC095B9
:100940001092070110920601D3CFCFB18FB18695D7
:1009500086958C73C3708C2BC82FC095CBCF0C940D
:1009600080060E94D70590E09093070180930601CE
:100970000E94FE030E94F703EDE6F4E0ABE7B4E06B
:1009800011921D9284E0EB37F807D1F78EE00E94B8
:10099000BC0C0C94CF070E94D70590E09093070100
:1009A000809306010E94FE030E94F703EDE6F4E047
:1009B000119284E0EB37F807D9F70895EF92FF9290
:1009C0000F931F93CF93DF938091060190910701BE
:1009D000892B91F080916C048F5F80936C0481115E
:1009E0000BC00E94D70590E0909307018093060109
:1009F000892B11F40E946C050BE714E0C0E0D0E0F5
:100A000087E0E82EEC0E8C2F0E940D048E2D0E94A4
:100A10000D048C2F0E946104F80191918F01F12C3B
:100A2000891721F031978083FF24F3948E2D0E9443
:100A30006104F80196818917D9F0868381E08F29B6
:100A4000D82B0E94FE03CF5FC730D1F62D2F4EE08A
:100A50006DE674E08BE794E00E943F0D0E94DB0797
:100A600081E0DF91CF911F910F91FF90EF9008955A
:100A700080E0E5CFE82FF0E0E359FB4F8081089557
:100A80000895259A2D9A0895269A2E9A0895279AC0
:100A90002F9A089556985E98089525982D98089550
:100AA00026982E98089527982F9808950E944A0511
:100AB0000E944D050E9450050C94530590E09093C0
:100AC00089008093880090938B0080938A00909394
:100AD0008D0080938C0008950E9456058FEF0E9430
:100AE0005E050E9441052FEF80E792E02150804093
:100AF0009040E1F700C000000E9444052FEF80E71E
:100B000092E0215080409040E1F700C000000E9438
:100B100047052FEF80E792E0215080409040E1F7B9
:100B200000C000000E944D052FEF80E792E02150A9
:100B300080409040E1F700C000000E9450052FEF78
:100B400080E792E0215080409040E1F700C0000033
:100B50000E9453050C94560589EA8093800089E031
:100B60008093810024982C983F988AB18F7C8AB911
:100B70006E98479A8BB180638BB9769A0E9438221F
:100B80006093090670930A0680930B0690930C06F7
:100B900067702FEF629FC0011124959587959595F9
:100BA00087950E945E050E946C050C947D0680E28C
:100BB00090E0909307018093060180918904811150
:100BC0000EC00E946A1481E0809389042FEF83EDA8
:100BD00090E3215080409040E1F700C0000064E6BF
:100BE00070E080E40E9470149093070180930601E6
:100BF000892B09F04EC064E670E080E00E94CC14BE
:100C00009093070180930601892B09F042C064E6A6
:100C100070E080E00E94CC1490930701809306015D
:100C2000892BB9F564E670E08FE30E94CC149093B1
:100C3000070180930601892B61F50E941F1564E668
:100C400070E080E40E947014909307018093060185
:100C5000892BF9F464E670E08CE00E94CC14909348
:100C6000070180930601892BA1F464E670E080E01F
:100C70000E94CC149093070180930601892B49F4BC
:100C800064E670E08FE30E94CC1490930701809398
:100C900006010E941F158091060108951092090611
:100CA00010920A0610920B0610920C0684E08061E6
:100CB000809309066091090670910A0680910B06DF
:100CC00090910C060E943C220C944822662329F045
:100CD000613061F090E080E00895FC01828188231A
:100CE000C9F38DE491E00E94CC07F4CFFC0182812E
:100CF000882381F38EE291E0F6CF81E00C942213F9
:100D0000CF936091AA057091AB058091AC0590914D
:100D1000AD050E94B421C82F0E944A050E944D05CE
:100D20000E9450050E945305C23059F020F4CC2394
:100D300059F0CF910895C33051F0C430D1F70E94DB
:100D40004105CF910C944705CF910C9441050E9429
:100D50004105CF910C944405662329F0811109C007
:100D600084E00C947A1F84E00E949B1F8DE00C9419
:100D70002F180895CF93DF939C013A9521153F4199
:100D800068F5EC01CC27D170DC01AA27B270AC0168
:100D9000442754709C012227387094FF11C080E1D1
:100DA000CD2B09F480E0AB2B09F08062452B09F0D4
:100DB0008064232B09F08068FB01DF91CF910994B7
:100DC00081E0CD2B09F480E0AB2B09F08260452B4C
:100DD00009F08460232B81F38860EECFDF91CF91FF
:100DE0000895CF93DF93EC01805E9109089720F07E
:100DF0006AEF7AE1209711F468E278E1CE010E946F
:100E0000BA068C2FDF91CF910C94D216CF93DF933B
:100E1000EC010E94BF17CE01805E9109089720F077
:100E200061E07BE1209711F46FE278E1CE01DF9180
:100E3000CF910C94BA06CF93DF93EC010E94F10698
:100E4000CE01DF91CF910C94060781E0089581E0F7
:100E500008950C9427071F93CF93DF9300D000D001
:100E60000F92CDB7DEB749835A836B832091380543
:100E700089819A8121111BC06623A9F00E946D20EF
:100E8000182F682F89819A810E94162069817A81A2
:100E9000812F0F900F900F900F900F90DF91CF91B7
:100EA0001F910C94020A0E944420182FEFCF0E9439
:100EB0006D2069817A81EDCFFC0140815181628191
:100EC000738184810C942B071F93CF93DF9390E061
:100ED000FC01E755FB4F1491FC01E755FA4FD49103
:100EE000875D9A4FFC01C491DD2319F081EE0E94C9
:100EF000D216CC2319F086EE0E94D216812F0E94C2
:100F00001518CC2319F086EE0E94BF17DD2331F0AF
:100F100081EEDF91CF911F910C94BF17DF91CF919C
:100F20001F910895FF920F931F93CF93DF938C012E
:100F3000F62EF8018491882349F1E8012196813049
:100F400049F4FE011491812F0E94D216812F0E9434
:100F5000BF1706C0823089F4FE0184910E94D21628
:100F60008E010F5F1F4F8F2D815018F3EFE9FFE0C7
:100F70003197F1F700C00000F7CF833019F4FE017C
:100F80008491E5CF0E946407E801EACFDF91CF9119
:100F90001F910F91FF90089560E00C9492070E94BA
:100FA0000122811102C00E94A4220E94520E0E94BE
:100FB0000C130C94AC050E94EE0F0E94C7110C9408
:100FC000AF04282F2F7041F0822F90E02A3010F4C8
:100FD0004D9608950697089587E290E00895089544
:100FE0000C94EF070C94F0070895CF93DF930E94C1
:100FF0001E1B0E94B30F0E94BA23EC0140E063E085
:1010000070E08DE691E00E94E30D0E94F407CE01AE
:101010000E94C6238A3F910530F00E946D0EDF9139
:10102000CF910C9414248FE99FE00197F1F700C051
:101030000000EDCF0F931F93CF93DF938C010E949D
:101040005C07EC01B8010E942907882309F48FC0CE
:10105000B801CE010E94980D882309F488C0B80118
:10106000CE010E945210882309F481C0B801CE013C
:101070000E948713882309F47AC0B801CE010E9428
:10108000F311882309F473C0B801CE010E9429141A
:10109000882309F46CC0C6318CE5D80709F491C1E6
:1010A00088F4C130FCE5DF0709F467C028F5C115F5
:1010B000DC4509F457C0C801DF91CF911F910F9112
:1010C0000C942507CE3DFCE5DF0709F463C078F4F6
:1010D000CC3DECE5DE0709F464C0CD3DDC4559F7B5
:1010E000F8018281882309F442C082E05FC0CE010A
:1010F0008A5F9C450997F8F6F80182818823D9F226
:101100000E940122811102C00E94A4220E94142286
:101110009093210680932006C031FCE5DF0709F497
:1011200005C108F07DC0C830ECE5DE0709F4DBC07E
:1011300008F052C0C4308CE5D80709F4CCC0C8F51B
:10114000C230FCE5DF0709F4BCC0C330DC4509F45C
:10115000BEC080912006909121060E9422220E940A
:101160001E1B05C0F801828181110E94F50780E0F5
:10117000DF91CF911F910F910895F801828188230B
:10118000B1F39091D705892F8E7F90FF8160809376
:10119000D705EDCFF8018281882349F30E94A4226C
:1011A000E6CFF8018281882311F380E00E94B02A03
:1011B000DECF809120068061C630ECE5DE0709F4C1
:1011C00083C0809120068860C730DC4508F47CC06D
:1011D00080912006806278C0CC308CE5D80709F475
:1011E00099C058F4CA30FCE5DF0709F486C008F45A
:1011F0007EC0809120068E7F67C080912006877F09
:10120000CE30ECE5DE0709F45FC0809120068B7FCD
:10121000CF30DC4508F458C0809120068F7E54C042
:10122000CB3F8CE5D80709F45AC030F5C331FCE553
:10123000DF0709F483C078F4C131ECE5DE0709F477
:1012400079C0C231DC4509F084CF0E941E1B809119
:1012500020068F7739C0C5318CE5D80709F484C0E2
:1012600008F4A2C0809121068160CA3FDC4509F0E4
:1012700070CF809321066DCFCF3F8CE5D80709F45E
:1012800068C090F4CD3FFCE5DF0709F44BC008F4DB
:1012900045C08091210683608093210640E064E090
:1012A00070E08DE091E033C0C130EDE5DE0709F478
:1012B00084C008F46AC0C230DD4509F04ACF80E03E
:1012C0007DC08091200681608093200642CF80916E
:1012D00020068260F9CF809120068460F5CF80914E
:1012E00021068260C6CF809120068064EDCF0E94E7
:1012F0001E1B809120068068E7CF809120068C60BD
:101300008093200640E064E070E08DE391E00E946D
:10131000E30D1FCF809120068D7FD6CF80912106CF
:101320008E7FA7CF809121068D7FA3CF809120064D
:101330008F7DCACF809120068F7BC6CF80912006FB
:10134000837F8093200640E062E070E08DE591E0CD
:10135000DECF809121068C7F8093210640E062E001
:1013600070E08DE291E0D3CF8091200682FB992737
:1013700090F921E0922790FB82F990FB83F980930A
:10138000200640E083FFE0CFBECF80912106982F5A
:10139000909591708E7F892B90FB81F98093210627
:1013A00040E081FFDCCF7BCF0E941E1B9091200686
:1013B000892F97FB87F9805887CF81E00E94A6226A
:1013C000C8CE0E940221F8019281992381F08A7A85
:1013D00091E009F490E090938A04811106C089E2BB
:1013E0000E94DD200E945121C2CE85E3F9CF809179
:1013F0008A04811104C089E20E94E420F3CF85E3CE
:10140000FBCF0895972F70E026E0929F600D711D2D
:101410001124FB0194E5899FE00DF11D1124EE0FCD
:10142000FF1FE55AFE4F859194910895FC01EE0F40
:10143000FF1FE75DF94F859194910895CF93DF9356
:101440000E94020A0E94E20BEC01811520E592073E
:1014500008F042C0811530E4930708F018C1883EB7
:10146000910528F5803E910508F0A4C0883A9105C1
:1014700088F4853A910508F093C08130910509F40C
:1014800099C0009709F496C0049708F093C0D0E083
:10149000C0E090C08F3B910508F490C0805C91093A
:1014A000C03CD105A0F30E94160AEC0183C081154F
:1014B000904250F4C11581E0D80708F07BC0C03FCE
:1014C000D10528F3D06576C0C11590E3D90708F09F
:1014D000D4C0CE019F70E7CF811525E5920758F55E
:1014E000811534E5930708F001C1811542E59407A1
:1014F00050F4C11581E5D80708F4CCC0DC2FCC2707
:10150000C16FD06A57C0982F969596959E0123700B
:101510003327C115D34508F0DAC0C1E0D0E002C0DE
:10152000CC0FDD1F2A95E2F720E2929FC001112423
:10153000C82BD92BCAC0C1158AE5D807A0F4C1159C
:1015400099E5D90708F0E2C0C11526E5D20708F4ED
:10155000D2C0C11538E5D30708F499CFDC2FCC27CA
:10156000C06FD06A27C0C1154BE5D40708F48FCFF0
:10157000C1158CE5D80708F4D7C0CE019056811567
:10158000904208F084CF8D2F8F710E94790C90E0EB
:10159000982F882788279F719C012C2BE901B4C0C4
:1015A000853A910509F4C3C0863A910509F0C2C095
:1015B000C2E8D0E4CE01DF91CF910895883A910539
:1015C00009F4BBC0893A910509F4BAC08A3A910579
:1015D00009F4B9C08B3A910509F4B8C08C3A910569
:1015E00009F4B7C08B3B910509F4B6C08C3B91055B
:1015F00009F4B5C08D3A910509F4B4C0803B91055A
:1016000009F4B3C08E3A910509F4B2C08F3A91053E
:1016100009F4B1C0813B910509F4B0C0823B91054A
:1016200009F4AFC0833B910509F4AEC0843B91053A
:1016300009F4ADC0853B910509F4ACC0863B91052A
:1016400009F4ABC0873B910509F4AAC0883B91051A
:1016500009F4A9C0893B910509F4A8C08D3B910507
:1016600009F4A7C08E3B910509F4A6C08A3B9105F9
:1016700009F4A5C0C0E0D4E49DCFCE019927D3FFE3
:1016800003C0EC01D86C96CFEC01D06C93CFDF7027
:10169000D06A90CFCE01E4E096958795EA95E1F780
:1016A00083702C2F26952695237040E2249F90016D
:1016B0001124382B8C2F8370C1E0D0E002C0CC0FF6
:1016C000DD1F8A95E2F7C22BD32BDC6873CFC1E014
:1016D000D0E002C0CC0FDD1F2A95E2F730E2939FE5
:1016E000C0011124C82BD92BDA6864CFD82FCC279E
:1016F000C46FD06A5FCF8C2F0E94790CC82FD0E0C6
:10170000DC2FCC27CC27DF71D06254CF8C2F8F7089
:101710000E94790C34E0D695C7953A95E1F7CF70E1
:101720009C2FEC01D06946CFDD27D06643CFC1E8BE
:10173000D0E440CFC3E8D0E43DCFC2EED4E43ACF0A
:10174000C9EED4E437CFCAEED4E434CFC5EBD4E449
:1017500031CFC6EBD4E42ECFC3EBD4E42BCFC4EB14
:10176000D4E428CFC7EBD4E425CFCCECD4E422CF0B
:10177000CDECD4E41FCFC3E8D5E41CCFCAE8D5E450
:1017800019CFC2E9D5E416CFC4E9D5E413CFC1E23D
:10179000D6E410CFC3E2D6E40DCFC4E2D6E40ACF3C
:1017A000C5E2D6E407CFC6E2D6E404CFC7E2D6E46A
:1017B00001CFCFE6D4E4FECEC0E7D4E4FBCECAE24C
:1017C000D6E4F8CE82389105B1F1B0F481339105B9
:1017D00009F475C048F48932910509F469C08A3268
:1017E000910509F473C008958533910509F459C032
:1017F0008933910501F10895833E9105A9F138F4EB
:10180000803E9105F9F0823E910549F10895863EAA
:101810009105A9F1873E9105C9F1843E910519F51D
:101820002091210621FF1FC08091200684FD14C055
:1018300087EE90E00895209120062370A1F080EEBD
:1018400090E008952091200620FD47C030912106A8
:1018500030FF09C024FF44C090E080E004C0209124
:10186000200622FDF7CF08952091200622FD3BC0DF
:101870003091210630FDE3CF24FFF5CFEDCF20914D
:10188000200623FFF0CF24FDE7CFD2CF2091200602
:1018900023FD2CC03091210631FFEECF84EE90E085
:1018A00008952091200625FFDECF89E290E008957B
:1018B0002091200625FFD7CF85E390E00895209161
:1018C000200626FFD0CF8AE290E0089520912006DE
:1018D00026FFC9CF81E390E0089589E390E0089561
:1018E00083EE90E0089582EE90E0089586EE90E019
:1018F00008959091200692FF06C0282F2871283065
:10190000F9F4877F846093FF06C0282F287128315F
:10191000F1F4877E84612091210620FF06C0382FD4
:1019200038713830D9F4877F816021FF06C0282FB5
:1019300028712831D1F4877E816194FD877E0895D6
:10194000282F24712430F9F68B7F8860DCCF282F74
:101950002471243101F78B7E8861DDCF382F3171FE
:10196000313019F78E7F8860E0CF282F2171213127
:1019700021F78E7E8861E1CFCF93C82F90E00E943F
:10198000293380938C0490938D04282FFC019BEFC6
:101990008E2F821B8C1710F0CF9108959193F8CF62
:1019A000EF92FF920F931F93CF93DF9310928B04CC
:1019B00050918C04E52FF0918D0440E0A62FB0E00B
:1019C0007BEF9AEFE92EF12C9E2F951B981748F08C
:1019D00040938B04DF91CF911F910F91FF90EF9077
:1019E000089591919B3F81F3292F30E0691768F0AA
:1019F0008D01021B130B98012E3131056CF09F01F4
:101A000021503109E9017883DFCFE701C21BD30BF5
:101A10009E012A0F3B1FF0CF41E0D6CF0F931F93BB
:101A2000CF93DF9310928E0450918C0430918B04ED
:101A3000DB018C01E52FF0918D0490E08E2F851B4A
:101A4000841748F030938B0490938E04DF91CF91EC
:101A50001F910F9108956D91E80189918E0168178A
:101A600051F060816B3F49F42083BD0161507109E1
:101A7000EB01888331E03196E1CF91E0FCCFCF924A
:101A8000DF92EF92FF921F93CF93DF937C016B0164
:101A9000C42F122F0E94BA236AEF70E00E94FB321B
:101AA000D82F80918B04882319F16D2F8C2F0E94E1
:101AB000D00C112369F02D2F4C2FB601C701DF91F7
:101AC000CF911F91FF90EF90DF90CF900C940E0D6F
:101AD00080918B04882379F380918E048111EBCF60
:101AE000DF91CF911F91FF90EF90DF90CF900895FD
:101AF0001111E1CFF1CF8554990BBC01990F880BDF
:101B0000990B0E94E72F20E030E040E451E40E946E
:101B1000732F9B01AC0160E070E080E090E40E94D4
:101B2000093120E030E04CED53E40E949C300895F0
:101B3000FB018D312CE5920739F482818823A1F1D4
:101B40000E94840F80E008958E312CE5920731F4D5
:101B50008281882349F10E94940FF4CF8F312CE5C4
:101B6000920741F482818823F9F00E94800F81114D
:101B7000F2CFE6CF8A322CE5920769F4828188237E
:101B800099F00E94AD0F40E064E070E085E891E0DC
:101B90000E94E30DD7CF8B329C4531F4828188239C
:101BA00019F00E94B00FEFCF81E008950E947B0DE5
:101BB0004FE050E00C94300F0E947B0D0C949E0E71
:101BC0000C946D0E0895CF92DF92EF92FF92CF9317
:101BD000DF93EC016B01F42E80919104811102C01E
:101BE0000E94520E8091110680FF55C080919E0484
:101BF00081110E946D0E81E080939F04D0931006A6
:101C0000C0930F06D0920E06C0920D06F0921406F5
:101C10001092A0041092A1041092A2041092A304A6
:101C2000109293041092920488819981AA81BB81B9
:101C300080939A0490939B04A0939C04B0939D047A
:101C400020E030E040E85EE36C817D818E819F8101
:101C50000E949C306B017C016091DD0170E090E09E
:101C600080E00E94E52F20E030E048EC52E40E9442
:101C7000732F9B01AC01C701B6010E949C30609399
:101C8000960470939704809398049093990410920B
:101C9000950410929404DF91CF91FF90EF90DF9024
:101CA000CF9008950E940122811102C00E94A422B7
:101CB0000E942F228093110690919104911103C0EC
:101CC00091E09093910480FF07C040E063E070E0F2
:101CD00085EC91E00C94E30D0895809191048111BD
:101CE00002C00E94520E1092E1041092E004109281
:101CF0009F0410929E041092DA041092DB0410925A
:101D0000DC041092DD041092D6041092D7041092D5
:101D1000D8041092D9041092D5041092D404E4EBA4
:101D2000F4E0A4EAB4E011921192119211921D9282
:101D30001D9284E0E43DF807B1F70895CF92DF9259
:101D4000EF92FF920F931F93CF93DF936B017C0170
:101D500080919E04882309F45CC0809191048111D4
:101D600002C00E94520E04EB14E0C7E0D0E0A701CD
:101D70009601F801648D758D868D978D0E946E2F6A
:101D8000811161C0FE01EE0FFF1FEE0FFF1FEC542B
:101D9000FB4F1082118212821382CC0FDD1FCC55B3
:101DA000DB4F1982188284E0E03DF807D9F5809175
:101DB000E0049091E104019797FD4DC09093E104F8
:101DC0008093E0048091E0049091E1042091DE048E
:101DD0003091DF042817390724F01092DF041092A5
:101DE000DE04892BB1F41092DA041092DB04109215
:101DF000DC041092DD041092D6041092D7041092E5
:101E0000D8041092D9041092D5041092D4041092E0
:101E10009E04DF91CF911F910F91FF90EF90DF9083
:101E2000CF90089584819581A681B7818193919304
:101E3000A193B19310821182128213828A819B81B5
:101E400089939993AECF219704501109CF3FDC07B6
:101E500009F08DCFACCF1092E1041092E004B2CF24
:101E6000CF92DF92EF92FF92CF93DF936B017C01D1
:101E7000EA0180919104811102C00E94520E80916A
:101E8000110680FF36C08091E0049091E10408972C
:101E900084F580919F0481110E946D0E81E08093F2
:101EA0009E041092900410928F0420E030E0A9016B
:101EB000C701B6010E9497301816DCF48091E00447
:101EC0009091E104FC01EE0FFF1FEE0FFF1FEC5499
:101ED000FB4FC082D182E282F382FC01EE0FFF1F32
:101EE000EC55FB4FD183C08301969093E10480931E
:101EF000E004DF91CF91FF90EF90DF90CF900895B5
:101F000080911106817008958091110681608093FF
:101F100011060E9433220E94E20D40E062E070E070
:101F200085EB91E00C94E30D40E062E070E085EA1F
:101F300091E00E94E30D2FEF81EE94E0215080406C
:101F40009040E1F700C000000E946D0E80911106E4
:101F50008E7F809311060C9433221092E204089530
:101F60001092E20408958091FB0481110C94E00D1D
:101F7000089521E08F3F910508F020E0822F089519
:101F80000C94B90F0E94B30F1092FB0440E068E07C
:101F900070E08EE592E00C94E30D1092FA0440E0BC
:101FA00068E070E08EED91E00C94E30D0E94B30FB9
:101FB0002091800330E02F5F3F4F23703327209321
:101FC000800348E2429FC001439F900D112440E0EE
:101FD00065E070E082529D4F0C94E30DCF938091A9
:101FE000F704882309F442C08091E3049091E4044B
:101FF000009799F50E94BA239093E4048093E30438
:10200000E091E5048091E6048150990BEE2321F0E4
:102010002E2F2150330BC9012091FB04222389F07C
:10202000F0E0E951FB4FC08189519B4FFC01808159
:102030000E94DC0D8091FB04882319F08C2F0E94F4
:10204000D60D8091E50490E001966091E60470E081
:102050000E940F338093E50409C00E94C62320919B
:102060007E0330917F032817390720F2CF9108951E
:10207000089581E08093FB0440E068E070E08EE921
:1020800092E00E94E30D0C943810089581E0809353
:10209000FA0440E068E070E08EE192E00E94E30D17
:1020A0000C944510EF92FF921F93CF93DF93CDB71F
:1020B000DEB7A3970FB6F894DEBF0FBECDBF7C018D
:1020C00086324CE59407A9F4DB0112968C918823A3
:1020D00009F458C00E94391080E0A3960FB6F89416
:1020E000DEBF0FBECDBFDF91CF911F91FF90EF906C
:1020F00008958732BCE59B0741F4FB018281882368
:1021000009F440C00E94C20FE7CF8832FCE59F0768
:1021100051F48091FB04DB0112969C91992391F17B
:102120008111F0CFD7CF8C32BCE59B0739F4FB018E
:102130008281882339F10E944610CECF8D32FCE592
:102140009F0741F4DB0112968C918823D9F00E94FD
:10215000CD0FC2CF8E32BCE59B0749F4FB018281D3
:10216000882381F08091FA048111F1CFE4CF893284
:102170009C4541F4DB0112968C91882319F00E9452
:10218000D60FAACF2091FB04211105C08091FA043B
:10219000882309F4DBC0FB013281332309F450C0EA
:1021A000F0EEEF16F10461F40E94B30F81E080932A
:1021B000F9041092F8041092F7041092E6048CCF00
:1021C00042EEE416F10471F40E94B30F8091F90419
:1021D000882319F081E08093F8041092F90410929A
:1021E000F7047ACF83EEE816F10491F48091F804B5
:1021F000882331F10E94B30F1092F90481E080939B
:10220000F7041092E5041092E4041092E30464CF02
:1022100092E5E916F10451F480917E0390917F03D9
:102220000A9790937F0380937E0356CFA1E5EA1629
:10223000F10431F480917E0390917F030A96F1CFEF
:102240008091800310918303811111C013508091FC
:102250008103180FFB018081180F41818EE090E00F
:10226000841B9109FCE08F9F100D112414C0813054
:1022700071F5105E80918103180FDB018C91180FAE
:1022800011964C918EE090E0841B9109982F990F44
:10229000990F890F180F332309F451C0222319F025
:1022A000812F0E94D60D8091F904882351F08091EE
:1022B000E604E82FF0E0E951FB4F10838F5F809335
:1022C000E604C7010E94C00F91E0892706CF823043
:1022D00071F4105E80918103180FFB018081180F4B
:1022E00041818EE090E0841B9109F7E0BCCF833000
:1022F00091F683E2E7E9F3E0DE01119601900D9299
:102300008A95E1F7DB01EC9181E090E08C0F9D1F55
:102310008E0F911DFC018091810390918203E80F43
:10232000F91F13508081180F11964C918EE090E0A8
:10233000841B9109ACE08A9F100D1124ACCF22239D
:1023400009F4BFCF812F0E94DC0DBBCF81E0C5CE49
:10235000CF9390910C05992321F0811116C0109212
:102360000C05CF910895EC2FF0E0EE0FFF1FE45025
:10237000FB4F808191810E94F1060E945121CF5F25
:1023800080910C05C81778F3EACFC0E0F9CF8091AF
:102390008403882399F080910D05882379F080913A
:1023A000100590911105009749F00E94C6234597AA
:1023B00028F010920D0581E00C94A8110895109258
:1023C0000D0510928403109211051092100581E002
:1023D0000C94A8118091840381110C94DF1181E089
:1023E0008093840308958F929F92AF92BF92CF9271
:1023F000DF92EF92FF920F931F93CF93DF938C01A5
:102400007B0110920E05873F4CE59407A9F4FB0170
:10241000C281CC2331F181E0809384038C2FDF9142
:10242000CF911F910F91FF90EF90DF90CF90BF90D1
:10243000AF909F908F900895883FFCE59F0739F4F7
:10244000FB01C281CC2369F00E94DF11E7CF893FF5
:102450009C4539F4FB01C281CC2319F00E94EA119A
:10246000DDCFD0918403C1E0DD23C1F210920F05CE
:10247000C0E0CC24C394D12C99249394809108017A
:10248000909109013FEF20E0E22FF0E0EE0FFF1FF7
:10249000E80FF91F459154910417150709F4322FDD
:1024A000452B11F02F5FF0CF3F3F11F5812CC8294C
:1024B000DD2321F0D1E080910C018111D0E0D170B9
:1024C00080910F058F5F80930F058823B9F280916B
:1024D0000E05882309F45AC00E94BA23909311056F
:1024E0008093100580E00E94A81181E0C82796CF54
:1024F00080900D05F701928180910C01560101C079
:10250000AA0C3A95EAF79923F9F0A82AA0920C01AF
:10251000882061F2C60102C0880F991F2A95E2F750
:102520000197A816190619F680910A0190910B01DE
:10253000009729F00E94F10690920E05B8CF61E055
:1025400080E00E94AC06F8CFA60102C0440F551FE0
:102550002A95E2F79A012150310982171306A1F456
:1025600080910A0190910B01009749F00E940607A3
:10257000A09480910C01A822A0920C0198CF60E059
:1025800080E00E94AC06F4CF812CF2CFC1110EC0C6
:1025900081E00E94A811DD2309F4A7CF1092110554
:1025A0001092100581E080930D059FCFF701828185
:1025B000882309F49ACF80910D05882309F495CFDB
:1025C0000E94BA239093110580931005E0910C05A9
:1025D000E83008F08ACF81E08E0F80930C05F0E0A0
:1025E000EE0FFF1FE450FB4F118300837ECFCF938C
:1025F000DF93EC0197FF0CC0FB018281882341F03F
:102600000E942613CE019F770E946A130E945213E4
:1026100081E0DF91CF9108958CE090E00E945434E6
:1026200090E0B0E0A0E08093150690931606A0938A
:102630001706B09318060895609115068CE090E097
:102640000C946834809315060C941C130E9402218C
:10265000809319060E94152180911506813089F01A
:10266000882359F0823091F08430B9F08FE39CE9EF
:102670000197F1F700C00000089582EE0E94D21683
:10268000F5CF88E193E00E941B07F0CF82EE0E9415
:10269000D21687E50E941518E9CF86EE0E9415181C
:1026A00088E1F8CF80911506813071F0882341F0E0
:1026B000823031F0843061F0809119060C9412213F
:1026C00082EE0E94BF17F8CF8CE20E941518F4CF5B
:1026D00088E2FBCF0F931F93CF93DF938C01CCE065
:1026E000D0E0C8010C2E02C0969587950A94E2F7B7
:1026F0008F700E94E1070E9415182497CC3F8FEF3E
:10270000D80779F7DF91CF911F910F9108950F931B
:102710001F93CF93DF93EC018B01FB018281882310
:1027200071F0C33EFCE5DF0719F188F4C13EECE52A
:10273000DE07C9F081E0C23EFCE5DF0789F0B801A1
:10274000CE01DF91CF911F910F910C94F712C43EEF
:102750008CE5D80779F084E0C53EECE5DE0779F733
:102760008093150602C0109215060E941C13E7CF35
:1027700082E0F6CF83E0F4CF0F931F93CF93DF93E4
:10278000C62FD42F022FFC0182818823C9F06093C9
:1027900014050E94BA23909313058093120580E2DA
:1027A0008C0F883008F050C0C77081E001C0880FDE
:1027B000CA95EAF7DF91CF911F910F910C942818D9
:1027C00010911405161335C08091120590911305D0
:1027D0000E94C623883C910560F5C0E2CD0F1D170D
:1027E000B9F080E2810F883040F4177081E001C0B9
:1027F000880F1A95EAF70E942F18C83048F481E034
:102800009D2F977001C0880F9A95EAF70E942818AB
:10281000802F0E941518C830B8F4D77081E001C02D
:10282000880FDA95EAF7DF91CF911F910F910C9401
:102830002F1880E28C0F883038F4C77081E001C017
:10284000880FCA95EAF7EFCFDF91CF911F910F91D3
:1028500008959C01CB01233F4CE5340731F190F4FE
:10286000283DFCE53F07E9F0293D4CE5340769F1D7
:10287000273D3C4579F426E241EE61EE0E94BC130F
:1028800080E00895253FFCE53F07B9F090F0263F32
:102890003C45B9F0FC0182818823D1F010921405E7
:1028A000089527E245EE65EEE9CF26E241EE60EEBF
:1028B000E5CF27E245EE64EEE1CF26E241EE62EE9F
:1028C000DDCF27E245EE66EED9CF28E241E0EBCF3F
:1028D00081E008951092B9008CE08093B8000895CB
:1028E000EF92FF920F931F93CF93DF93182FEB017B
:1028F0001092BC0084EA8093BC000E94BA237C0141
:102900008091BC0087FF27C08091B900887F883004
:1029100029F08091B900887F8031D9F51093BB00F0
:1029200084E88093BC000E94BA238C018091BC0093
:1029300087FF24C02091B900287F90E080E02831F3
:10294000B1F081E090E0203411F490E080E09195C6
:10295000819591090CC0CF3FDC0791F20E94BA2308
:102960008E199F098C179D0758F28EEF9FEFDF910C
:10297000CF911F910F91FF90EF900895CF3FDC070B
:10298000A9F20E94BA23801B910B8C179D0770F24D
:10299000ECCF8FEF9FEFEBCF0F931F93CF93DF938E
:1029A000EB018093BB0084E88093BC000E94BA23B3
:1029B0008C018091BC0087FF11C02091B900287F55
:1029C00081E090E0283211F490E080E091958195CB
:1029D0009109DF91CF911F910F910895CF3FDC07AF
:1029E00041F30E94BA23801B910B8C179D0708F3BB
:1029F0008EEF9FEFEECF0F931F93CF93DF93EC01FA
:102A000084E88093BC000E94BA238C018091BC00B2
:102A100087FF08C08091BB0090E0DF91CF911F91AC
:102A20000F910895CF3FDC0789F30E94BA23801BE2
:102A3000910B8C179D0750F38EEF9FEFEECF84E93B
:102A40008093BC00089590931A058093190508950A
:102A5000E0911905F0911A05309721F00190F0816D
:102A6000E02D099480E00895E0911905F0911A0590
:102A7000309799F020919603222359F02091200657
:102A800027FF07C0DC012C9111962C93119725E0AC
:102A90002C930280F381E02D09940895E0911905AB
:102AA000F0911A05309739F022E0DC012C93048074
:102AB000F581E02D099408952091170530911805AE
:102AC0002817390771F09093180580931705E09146
:102AD0001905F0911A05309721F00680F781E02D55
:102AE0000994089520911505309116052817390786
:102AF00071F09093160580931505E0911905F091FA
:102B00001A05309721F00084F185E02D099408958D
:102B100085B7806885BF85B7806885BF08950895AB
:102B200008950C948F1508950C9493150E948815A0
:102B30000E9490150C94911581E008950E94B12394
:102B40000E94B1040E9446240C949415BF92CF9227
:102B5000DF92EF92FF920F931F93CF93DF93CDB746
:102B6000DEB72A970FB6F894DEBF0FBECDBF0E9426
:102B7000DE040E949C15882309F471C08CE1C82EE4
:102B800085E0D82E10E000E0B02E802F0E943A059C
:102B9000E82EF601F1906F01F81609F45AC0809101
:102BA000D70581FD0E94400590E080E0FE242F2D96
:102BB00030E0482FB901082E02C0759567950A9438
:102BC000E2F760FF41C08E83BF8281E090E06C013C
:102BD00002C0CC0CDD1C4A95E2F72E2D30E02C21F2
:102BE0003D21232B09F480E088870E94BA2381606D
:102BF000782F9A8789874E815F8168858A850E94B0
:102C00008816F801E45EFA4F80818C2580830E944B
:102C1000D3250E94281590911B05891789F10E94E0
:102C2000281580931B052A960FB6F894DEBF0FBEB9
:102C3000CDBFDF91CF911F910F91FF90EF90DF906B
:102C4000CF90BF900C94F20701968630910509F061
:102C5000B0CF0F5F1F4F0E30110509F095CF8FEFEA
:102C600089838A831B820E94BA238160782F9D8387
:102C70008C8349815A816B818D810E948816C7CFD0
:102C80002A960FB6F894DEBF0FBECDBFDF91CF916D
:102C90001F910F91FF90EF90DF90CF90BF9008951C
:102CA000CF93DF93DC018C91682F70E021E030E05E
:102CB00001C0220F8A95EAF711964C91119750E0C6
:102CC000EA01C65DDA4F988112968C91129788239B
:102CD000C9F080913A058823C1F086E0849FF00115
:102CE000859FF00D1124E60FF71FEE0FFF1FE6542E
:102CF000FC4F408151814D935C93292B2883DF91B8
:102D0000CF910895892F8223E6CF20952923F6CFEE
:102D1000CF93DF93CDB7DEB72B970FB6F894DEBF16
:102D20000FBECDBF4F83588769877A878B878A8587
:102D30009B85892B21F0CA0189238F3FE1F41E82F4
:102D40001D8285E0FE013796DE01119601900D92FD
:102D50008A95E1F749815A816B817C818D819E81C1
:102D60000E94F61D2B960FB6F894DEBF0FBECDBFA6
:102D7000DF91CF910895CE0107960E945016DFCFC4
:102D8000FC01808191810E94AF2092959F709630C6
:102D900041F480913A0591E0892780933A05909318
:102DA00039050895CF93C82F882309F4E6C08238E7
:102DB000C1F40E94281581FDE0C089E30E94DD2056
:102DC0000E9451212FEF81EE94E0215080409040ED
:102DD000E1F700C0000089E30E94E420CF910C9449
:102DE00051218338A1F40E94281580FDC6C083E5D7
:102DF0000E94DD200E9451212FEF81EE94E02150AE
:102E000080409040E1F700C0000083E5E5CF8438C2
:102E1000A1F40E94281582FDB0C087E40E94DD2045
:102E20000E9451212FEF81EE94E02150804090408C
:102E3000E1F700C0000087E4CFCF8CEF8C0F813A20
:102E400048F48C2F0E94C927811197C08C2F0E94B3
:102E5000DD20C4CF80E28C0F883048F4C77081E059
:102E600001C0880FCA95EAF70E940521B7CF8BE50C
:102E70008C0F833068F481E890E0C53A31F083E844
:102E800090E0C63A11F482E890E0CF910C945C1582
:102E900088E58C0F873108F068C082EE90E0C83A70
:102EA00009F460C089EE90E0C93A09F45BC08AEE8B
:102EB00090E0CA3A09F456C085EB90E0CB3A09F4A9
:102EC00051C086EB90E0CC3A09F44CC083EB90E023
:102ED000CB3B09F447C084EB90E0CC3B09F442C003
:102EE00087EB90E0CD3AF1F18CEC90E0C03BD1F172
:102EF0008DEC90E0CE3AB1F183E891E0CF3A91F1D8
:102F00008AE891E0C13B71F182E991E0C23B51F165
:102F100084E991E0C33B31F181E292E0C43B11F1DD
:102F200083E292E0C53BF1F084E292E0C63BD1F04F
:102F300085E292E0C73BB1F086E292E0C83B91F0B7
:102F400087E292E0C93B71F08FE690E0CD3B51F013
:102F500080E790E0CE3B31F090E080E0CA3B11F496
:102F60008AE292E0CF910C947215C03F30F08C2F22
:102F70000E94E124CF910C94C825CF910895882315
:102F800009F452C0823871F40E94281581FF4CC0A8
:102F900089E30E94DD200E94512189E30E94E42000
:102FA0000C945121833859F40E94281580FF3CC0AD
:102FB00083E50E94DD200E94512183E5EFCF843814
:102FC00059F40E94281582FF2FC087E40E94DD205B
:102FD0000E94512187E4E2CF9CEF980F913AF0F2E2
:102FE00090E2980F983050F4877091E001C0990FEB
:102FF0008A95EAF7892F0E940B21D2CF9BE5980F83
:10300000933020F490E080E00C945C1598E5980FE4
:10301000973120F490E080E00C947215803F20F00E
:103020000E9449250C94C8250895CF93C82F0E946B
:10303000D216C93349F42FEF87EE93E02150804038
:103040009040E1F700C000008C2FCF910C94BF1787
:10305000882321F00E9405210C9451210895882392
:1030600021F00E940B210C9451210895BF92CF9220
:10307000DF92EF92FF920F931F93CF93DF937C0128
:10308000D62FC72FFC01058102950F7012811111F7
:103090000E9425210E94FB20D82E882371F0112345
:1030A000B1F080E28D0F883090F082E00E949C2188
:1030B0000E94FB2091E0D82ED926CC2EC2949FE00E
:1030C000C922EC2DF0E0E256FB4C0C942333D12CBA
:1030D000F4CF0C2F0F70C07F11F00295007F1123E9
:1030E000A9F0002359F080E28D0F883010F0D11143
:1030F00009C0802F0E9405210E9451218D2F0E941E
:10310000D21614C0802F0E941821F6CF8D2F0E9456
:10311000BF17002359F080E28D0F883010F0D111D5
:103120002CC0802F0E940B210E9451212C2D285051
:10313000330B2430310520F40E9428150E94F20739
:10314000DD2009F423C20E94F72080FD1FC2F70191
:1031500012820E94F1200E947A1FC7010E94D01A99
:103160000E94F120DF91CF911F910F91FF90EF907E
:10317000DF90CF90BF900C949B1F802F0E941E2148
:10318000D3CFFC2FFF70BF2EC07FC03219F0B29496
:1031900080EFB822DD2339F0D13019F1112359F134
:1031A000002321F1ABCF112381F0011106C00E9451
:1031B00038218B290E942818B9CF0130C1F70E940D
:1031C00038218B290E943E21B1CF011106C00E94F7
:1031D00047218B2D0E942F18A9CF013009F4A6CFCB
:1031E000F6CF112329F0023008F0A0CF8B2DE2CFCB
:1031F00001119CCFEECF002361F3D93349F42FEFB7
:1032000037EE83E0215030408040E1F700C00000FD
:103210008D2F0E94BF178ACF8C2F8695869583703D
:1032200069F0813009F082CF8D2F9C2F937011119E
:1032300002C090E080E00E94721578CF8D2F9C2F05
:103240009370111102C090E080E00E945C156ECF77
:10325000112309F1D53F99F0D63FB9F0D43F49F495
:1032600080911A0690911B06816090931B068093B3
:103270001A068D2F0E94E1240E94C82557CF809105
:103280001A0690911B068260F0CF80911A069091E9
:103290001B068460EACFD53F89F0D63FA9F0D43F22
:1032A00049F480911A0690911B068E7F90931B061D
:1032B00080931A068D2F0E944925DECF80911A0631
:1032C00090911B068D7FF2CF80911A0690911B067C
:1032D0008B7FECCF8C2F837009F041C0111126CF6A
:1032E0004D2F429546954770440F440F0D2F0F7098
:1032F00010E030E020E0042E04C0000F111F221F58
:10330000331F0A94D2F760E070E0CB01D4FF0FC006
:103310006FE070E080E090E004C0660F771F881FC8
:10332000991F4A95D2F76095709580959095C695AE
:10333000C695C370602B712B822B932BC23049F042
:1033400058F4C13019F00E942C1FF0CE0E941A1FB1
:10335000EDCE0E943E1FEACE0E94181FE7CE869552
:10336000112311F08C2F8170882309F4DFCE4D2FAB
:10337000429546954770440F440F0D2F0F7010E093
:1033800030E020E0042E04C0000F111F221F331F65
:103390000A94D2F760E070E0CB01D4FF0FC06FE079
:1033A00070E080E090E004C0660F771F881F991FCF
:1033B0004A95D2F76095709580959095C695C6957B
:1033C000C370602B712B822B932BC23049F058F4C1
:1033D000C13019F00E94F11FA9CE0E94DF1FA6CEB6
:1033E0000E940320A3CE0E94541FA0CECF701123B1
:1033F00029F08C2F0E947A1F8D2FDCCE8D2F0E94FA
:103400002F188C2F0E949B1F91CED23F81F160F428
:10341000D03FC9F0D13F21F1112309F441C001117E
:103420006DCE8C2F8F7120C0D33F31F1D43FA1F7E7
:10343000112361F1CF718C2F0E947A1F63E08C2FD2
:103440000E94872173CE112339F001116FCE8C2F8A
:103450008F710E94BE1F6ACE023008F067CEF7CF90
:103460008C2F8F71112371F20E947A1F5FCE8C2FE7
:103470008F711123C9F3C6CF112329F08C2F8F71BF
:103480000E94651F53CE0E94601F50CE81E00E94B3
:103490009C21023008F44ACE82E00E949C2146CE54
:1034A000002359F0D93309F0B3CE9FEFE7EEF3E0F4
:1034B0009150E040F040E1F7A9CE8C2F8F71A2CF60
:1034C0004C2F4F706D2FC7010E9466060E94901E00
:1034D0002DCED23F71F1C8F4D03F01F1D13FB9F107
:1034E00080913905002309F446C0882341F080917A
:1034F0003A0591E0892780933A05109239058D2F7E
:10350000112389F10E94D21616C0D43FD9F078F069
:10351000D53F31F711110FC081E006C0112359F0DA
:1035200080913A0591E0892780933A0504C081E0B3
:10353000182710933A054C2F4F706D2FC7010E942A
:10354000010AF4CD1111F7CF10923A05F4CF1123EF
:1035500039F080913905882319F310923905EBCFA2
:103560000023F1F2E8CF0E94BF1786E0F701119225
:103570008A95E9F7E0CF8823F1F21111DCCF809131
:103580003A0591E0892780933A05E7CFDF91CF9103
:103590001F910F91FF90EF90DF90CF90BF90089513
:1035A0000F931F93CF93DF93EC018B819C81892B29
:1035B00029F08881998189238F3F29F4DF91CF9168
:1035C0001F910F910895CE010E941A088823B1F32C
:1035D000688179818A810E94B9208C010E9415201E
:1035E0000E94171FB801CE01DF91CF911F910F915B
:1035F0000C943618882321F00E9418210C94512134
:103600000895882321F00E941E210C9451210895D1
:103610000E9425210E9435210E9451210E946A2684
:103620000E94C82590E080E00E945C1590E080E058
:103630000C9472150E94EB200C94081B0E9415211B
:103640000C941A1BE92FE295EF70E250EE3070F403
:10365000F0E0E255FB4C0C942333803F19F020F44A
:10366000883E20F481E00895843FE1F380E00895EE
:10367000883EC0F3813FD1F7F5CF93FB882780F9CF
:1036800008950E94AF200C94221BCF93DF9300D0AB
:1036900000D00F92CDB7DEB70F900F900F900F9024
:1036A0000F90DF91CF910895CF93DF9300D000D09A
:1036B00000D0CDB7DEB726960FB6F894DEBF0FBEAA
:1036C000CDBFDF91CF9108951F93CF93DF93C0912A
:1036D0003B0516E080913C058C1304C0DF91CF912F
:1036E0001F910895D0E01C9FF0011D9FF00D112443
:1036F000E35CFA4F408151816281738184819581BD
:103700000E94541B2196C770E5CF40916D055091E2
:103710006E0560916F0570917005809171059091B3
:1037200072050C94541B20913B0590913C0556E08A
:10373000291302C080E0089530E0529FF001539FAA
:10374000F00D1124E35CFA4F7181761306C070818D
:10375000781303C07281741304C02F5F3F4F27702A
:10376000E7CF81E008951F93CF93DF938091720597
:10377000807FC1F480916F058823A1F080913B0583
:10378000C0913C0560916D0570916E05409170058A
:1037900050917105D62FD723DA01A095B09516E088
:1037A000C81304C0DF91CF911F91089590E0411597
:1037B000510511F0DF3F31F401968770F1CF2A0FE8
:1037C0003B1F17C0189FF001199FF00D1124E35CF7
:1037D000FA4F21812713F0CF20812613EDCF2281CC
:1037E0002111EACF238134812417350740F3241BAC
:1037F000350B283C310500F7209172052F702061B0
:103800002093720526E0289FF001299FF00D1124D6
:10381000EE5BFA4F80818F70806180838DE695E04A
:103820000E94D01ADF91CF911F910C94641B9F923C
:10383000AF92BF92CF92DF92EF92FF920F931F93BE
:10384000CF93DF93CDB7DEB761970FB6F894DEBFA5
:103850000FBECDBF8C0185E0F801DE011D96019001
:103860000D928A95E1F7D801DC901196EC901197B2
:103870001296CC90129780917005909171050097E7
:1038800009F492C120916D0530916E05422F4323BA
:103890004F3F09F489C11396AD90BC9090906F058D
:1038A000992009F422C1A816B906E0F1F501E81B38
:1038B000F90BCF01FF24F394883C910508F0F12C1B
:1038C00080917205982F907FFF2009F4C7C0911155
:1038D0008EC0FC2C3E112BC02D1129C0C11027C059
:1038E0008F708061809372050E94851B8DE695E044
:1038F0000E94D01A80917205D80115968C938F2D55
:1039000061960FB6F894DEBF0FBECDBFDF91CF91A9
:103910001F910F91FF90EF90DF90CF90BF90AF90ED
:103920009F900895809590958A0D9B1DC3CFA114FB
:10393000B10429F08E2D8D218F3F09F054C180E014
:1039400080FF16C04C2D6E2D8D2D0E94931B882359
:1039500079F08DE695E00E94D01A86E0EDE6F5E07C
:10396000DF011D928A95E9F70E94851BF12CC7CFD4
:10397000AB2829F08E2D8D218F3F09F031C180E0D9
:10398000B82FB170AB2E80FF29C04C2D6E2D8D2D20
:103990000E94931BB82E811121C0DD86EE868D8595
:1039A0009E850E94AF20292F22952F70223050F043
:1039B000243078F49F7051F0F8019581907F31F4B4
:1039C000FB2C9DCF9F7011F08823D1F3805E88304F
:1039D000B8F3C8010E94D01ABA2CF2CFCC2009F457
:1039E0008ECF80917205816080937205BFCF3E11AA
:1039F00006C02D1104C0D801CC2009F49CC0DD867E
:103A0000EE868D859E850E94411B882319F1CC206E
:103A100009F180917205803270F020916D0530912E
:103A20006E0538872F831986BB86AA868C87CE01C0
:103A300007960E94D01A86E0F801ADE6B5E0019045
:103A40000D928A95E1F70E94B31B0E94851BFF240B
:103A5000F39455CFC8010E94D01AF9CF911115C027
:103A60007A2DB98AA88A4D2D5E2D6C2D89890E94E8
:103A7000451B8DE695E00E94D01A86E0EDE6F5E064
:103A8000DF011D928A95E9F763C03E1112C02D1126
:103A900010C0C1100EC0F8018583C8010E94D01A61
:103AA000EDE6F5E086E0DF011D928A95E9F7F92C55
:103AB00026CFDD86EE868D859E850E94411B88235C
:103AC00049F2CC2039F280917205803208F4B3CFEC
:103AD00020916D0530916E053A8329831B82BD824A
:103AE000AC828E83CE010196A4CFA816B90698F1B8
:103AF000F501E81BF90BCF01F12C883C910508F08A
:103B000049C0FC2CCC2009F4A5CF3E1132C02D11A8
:103B100030C08091720580FD23C0982F907F01F105
:103B2000D80115968C931597903F39F0982F907F78
:103B3000905F8F70892B15968C93C8010E94D01AC4
:103B400086E0F801ADE6B5E001900D928A95E1F7C7
:103B50000E94851BD4CE809590958A0D9B1DCCCF5D
:103B600086E0F801ADE6B5E001900D928A95E1F7A7
:103B7000C6CEDD86EE868D859E850E94411B811115
:103B80005ACF80917205816080937205C8010E94AE
:103B9000D01AB5CE7A2DB98AA88A4D2D5E2D6C2DFE
:103BA00089890E94451B69CFCC2009F453CFDD865B
:103BB000EE868D859E850E94411BF82E882309F490
:103BC00049CF86E0F801ADE6B5E001900D928A9507
:103BD000E1F78DE695E00E94C0160E94B31BB8CFB6
:103BE00081E08C25CDCE81E08C25AACE1F93CF938A
:103BF000DF93CDB7DEB72C970FB6F894DEBF0FBEBC
:103C0000CDBF4F83588769877A878B879C87CE0182
:103C100007960E94171C882369F08A859B85892B4B
:103C200039F04F815885842F85238F3F09F071C06B
:103C300016E05FC086E0FE013796DE011196019026
:103C40000D928A95E1F78A859B85892B89F3888572
:103C50009F8189238F3F61F320913C0530E0C901AA
:103C600001968770992740913B054817190671F412
:103C70000E941E1B10923C0510923B0586E0EDE66B
:103C8000F5E0DF011D928A95E9F7D2CF96E0929F89
:103C9000D001939FB00D1124A35CBA4FFE01319661
:103CA00001900D929A95E1F780933C050E94641B68
:103CB000BFCF819FC0011124835C9A4F0E94171CC3
:103CC0008823E9F0E0913B051E9FF0011124E35C9D
:103CD000FA4F4081518162817381848195810E9474
:103CE000541B80913B0590E0019687709927809343
:103CF0003B0580913B0590913C058913DACF2C96CA
:103D00000FB6F894DEBF0FBECDBFDF91CF911F91EC
:103D1000089569857A858B859C850E94541B88CF80
:103D2000EF92FF920F931F93CF93DF938C01892B18
:103D300081F0F12CEE24E394E8012196F8018491BE
:103D4000843770F4843008F05FC08130B1F0823085
:103D5000A1F1DF91CF911F910F91FF90EF90089506
:103D6000853709F44CC008F43DC09CE7980F9037A4
:103D700080F78F770E94BF1749C00E5F1F4FFE016B
:103D8000849190E2980F983060F48770FE2D01C006
:103D9000FF0F8A95EAF78F2F0E9428210E94512158
:103DA00002C00E94D2168F2D815030F2EFE9FFE061
:103DB0003197F1F700C00000F7CF0E5F1F4FFE01F3
:103DC000849190E2980F983050F48770FE2D01C0D6
:103DD000FF0F8A95EAF78F2F0E942E21DFCF0E94D6
:103DE000BF17E1CF0E5F1F4FFE01C491C150D8F243
:103DF0008FE99FE00197F1F700C00000F7CF0E5F59
:103E00001F4FFE01F490CFCF0E94D2168E01CBCF70
:103E100008950C94081F0E94091F6093AE057093CB
:103E2000AF058093B0059093B1050C94081B0895DD
:103E30000C940B1F0F931F930091AE051091AF05CB
:103E40002091B0053091B105602B712B822B932B03
:103E50001F910F910C940B1F0F931F930091AE05B0
:103E60001091AF052091B0053091B1056023712309
:103E7000822393231F910F910C940B1F0F931F9379
:103E80000091AE051091AF052091B0053091B105BC
:103E900060277127822793271F910F910C940B1F86
:103EA0000C94081F0C94501F0E94521F6093AA0587
:103EB0007093AB058093AC059093AD050C94081BF3
:103EC00060E070E0CB010C94541F0F931F9341E00E
:103ED00050E060E070E08A019B0104C0000F111FF8
:103EE000221F331F8A95D2F7C901B8011F910F9184
:103EF0000C94541F0F931F9341E050E060E070E07A
:103F000004C0440F551F661F771F8A95D2F7809112
:103F1000AA059091AB05A091AC05B091AD058A01C1
:103F20009B01082B192B2A2B3B2BC901B8011F9190
:103F30000F910C94541F0F931F9341E050E060E0E9
:103F400070E004C0440F551F661F771F8A95D2F793
:103F5000CB01BA0160957095809590950091AA0566
:103F60001091AB052091AC053091AD056023712314
:103F7000822393231F910F910C94541F0F931F932F
:103F800041E050E060E070E004C0440F551F661F40
:103F9000771F8A95D2F78091AA059091AB05A091E1
:103FA000AC05B091AD058A019B01082719272A2786
:103FB0003B27C901B8011F910F910C94541F0F9317
:103FC0001F930091AA051091AB052091AC0530918B
:103FD000AD05602B712B822B932B1F910F910C94AD
:103FE000541F0F931F930091AA051091AB052091C8
:103FF000AC053091AD0560237123822393231F917B
:104000000F910C94541F0F931F930091AA051091C8
:10401000AB052091AC053091AD0560277127822753
:1040200093271F910F910C94541F0895E92FEE0FC1
:10403000E90FEE0F8E0F982F977041E001C0440FEB
:104040009A95EAF786958695869595E0899FF00181
:104050001124ED58FA4F30E020E070E05191DF017B
:104060001197CB01022E02C0969587950A94E2F72C
:10407000817081958527842385278C932F5F3F4FFF
:104080002530310559F70895E92FEE0FE90FEE0FAE
:104090008E0F982F977086958695869525E0829F3E
:1040A000F0011124ED58FA4F50E040E080E02191FA
:1040B00030E0092E02C0369527950A94E2F7217068
:1040C0003327042E01C0220F0A94EAF7822B4F5F98
:1040D0005F4F4530510559F70895BF92CF92DF9257
:1040E000EF92FF920F931F93CF93DF938C01C090B9
:1040F000AA05D090AB05E090AC05F090AD0580919D
:10410000AE059091AF05A091B005B091B105C82A58
:10411000D92AEA2AFB2ACFE1D0E0BC2ED701C6017A
:104120000C2E04C0B695A795979587950A94D2F75B
:1041300080FD0EC0219788F7B12C8B2DDF91CF9198
:104140001F910F91FF90EF90DF90CF90BF90089557
:10415000B8018C2F0E941E0A019761F3EECFCF9316
:10416000DF93EC010E946D20BE01DF91CF910C9492
:104170001E0A1F93CF93DF93EB019091380599238B
:1041800031F0CB01DF91CF911F910C94AF208823A8
:1041900079F0CB010E946D20182F682FCE010E946C
:1041A0001620BE01812FDF91CF911F910C941E0A22
:1041B000CB010E944420182FF4CF682F80918503F3
:1041C000909186030C940F23682F80918503909122
:1041D00086030C941A2380918503909186030C9496
:1041E00025238091B20585958595859508958091C3
:1041F000B205877008959091B205977081E009F437
:1042000080E008958091D60508959091D605892B78
:104210008093D605089580959091D6059823909324
:10422000D60508958093D60508951092D605089571
:104230009091D505892B8093D5050895809590910F
:10424000D50598239093D50508951092D505089526
:104250009091D405892B8093D405089580959091F1
:10426000D40598239093D40508951092D405089509
:104270008091B305089508950C943B219091B30566
:10428000981721F08093B3050C943C2108958091F8
:10429000B305882329F01092B30580E00C943C21EB
:1042A0000895E0918503F09186038091D60580837F
:1042B000E0918503F091860380819091D505892B4B
:1042C0008083E0918503F091860380819091D405ED
:1042D000892B80839091B305992381F0E091850328
:1042E000F09186038081892B808380918503909152
:1042F00086030E94AB2281110E9447218091850391
:10430000909186030C94341508950C94842198E0C0
:10431000899F90011124622B6093B2050E947A1F3D
:104320008091B2058595859585950C94852110928F
:10433000B20580E00C9485219091B2058095892387
:104340008093B205282F277071F4282F082E000CB7
:10435000330B9217130639F08595859585950E9444
:104360009B1F0C9497210895CF92DF92EF92FF92BA
:104370006C01EE24FF2420E0C114D104E104F10417
:1043800019F0C701B60120E1C72ED82EE92EFF246F
:10439000C114D104E104F10419F0285FC701B6018A
:1043A0006B017C0154E0F694E794D794C7945A9536
:1043B000D1F7C114D104E104F10419F02C5FC70155
:1043C000B6016B017C0142E0F694E794D794C79460
:1043D0004A95D1F7C114D104E104F10419F02E5F1C
:1043E000C701B6019695879577956795672B682BDA
:1043F000692B09F02F5F822FFF90EF90DF90CF9015
:10440000089590E080E00E94623421E08C3E9E4F4F
:1044100009F020E0822F089582E090E00C9454345B
:1044200083E090E00C945434CF9384E090E00E94B9
:104430005434C82F81E290E00E945434982F8C2F7E
:10444000CF910895CF93C92F682F84E090E00E9408
:1044500068346C2F81E290E0CF910C94683487E04F
:1044600090E00C945434682F87E090E00C9468340A
:104470008FE090E00C945C34AB01BC018FE090E0E5
:104480000C947A34AB01BC0183E190E00C947A3453
:1044900060E070E0CB010C9442226CEE7EEF90E085
:1044A00080E00E94863460E082E090E00E94683400
:1044B00060E083E090E00E9468341092AE051092B4
:1044C000AF051092B0051092B10560E084E090E075
:1044D0000E94683460E081E290E00E94683460E00D
:1044E00085E090E00E94683460E086E090E00E9401
:1044F00068346FEF87E090E00E94683440E050E05D
:10450000BA0188E090E00E947A3460E08DE090E0AB
:104510000E94683440E050E0BA0188E190E00E94D7
:104520007A3460E087E190E00E94683440E050E037
:10453000BA018CE190E00E947A3460E080E290E081
:104540000E9468340C944E060C944D22682F8EE025
:1045500090E00C946834FC01329680919603882395
:1045600021F0809120069EE187FF96E080E0915047
:1045700008F4089521912223D1F38F5FF8CF9C0195
:10458000FC0132969FEF80E04191461751F09F3F2A
:1045900019F4411101C0982F8F5F8630A9F79F3F12
:1045A00009F40895290F311D97FD3A95F9016283A9
:1045B0000895FC01329608962191261303C0DF016D
:1045C00011971C92E817F907B9F70895E62FE695B9
:1045D000E695E695EE3168F4E80FF92FF11D677066
:1045E00021E030E001C0220F6A95EAF78281822B38
:1045F00082830895E62FE695E695E695EE3170F410
:10460000E80FF92FF11D677021E030E001C0220FA3
:104610006A95EAF7209582812823228308952091C4
:104620009603222329F02091200627FD0C94E622F0
:104630000C94BF2220919603222329F0209120067A
:1046400027FD0C94FA220C94D922FC013296809119
:104650009603882351F08091200687FF06C08EE1E3
:10466000DF011D928A95E9F7089586E0F9CF089554
:104670000C9437230E94382380912606843049F118
:104680001092D80588E190E020E40FB6F894A89540
:10469000809360000FBE2093600080E00E94F207CC
:1046A0000E94382383B7817F846083BF83B7816092
:1046B00083BF7894889583B78E7F83BF0FB6F894B5
:1046C000A8958091600088618093600010926000DE
:1046D0000FBE08950895CF930E94CB040E94DE047C
:1046E0000E946A23C0E08C2F0E943A05811105C008
:1046F000CF5FCE30C1F7CF91089581E0FCCF089510
:104700000C947F230E941E1B0E9428150E94F20712
:104710000C9480231F921FB61F9211248F939F9396
:10472000AF93BF938091D805811113C080911C066F
:1047300090911D06A0911E06B0911F064196A11DE5
:10474000B11D80931C0690931D06A0931E06B09386
:104750001F06BF91AF919F918F911F901FBE1F9019
:10476000189582E084BD93E095BD9AEF97BD809344
:104770006E0008952FB7F89480911C0690911D0645
:10478000A0911E06B0911F062FBF0895CF92DF9211
:10479000EF92FF920F931F932FB7F89440911C064E
:1047A00050911D0660911E0670911F062FBF6A0171
:1047B0007B01EE24FF248C0130E020E0C016D106FE
:1047C000E206F30650F0481B590BCA011F910F91E6
:1047D000FF90EF90DF90CF90089541505109F3CFB3
:1047E00078941F921FB61F9211248F939F93AF93BB
:1047F000BF9380911C0690911D06A0911E06B0915A
:104800001F060196A11DB11D80931C0690931D06E5
:10481000A0931E06B0931F06BF91AF919F918F91F9
:104820001F901FBE1F901895F89481E08093E000C0
:1048300080E28093D800E9ECF0E010828FE19EE402
:104840000197F1F700C000001DBA109268001CBC6F
:1048500010BE1FBA10927A0010926E0010926F0074
:1048600010927100109272001082ECEBF0E0108256
:1048700014B817B81AB81DB810BA108215B818B8FD
:104880001BB81EB811BA0C94003F08950E94012273
:10489000811102C00E94A4220E940C228093D7059D
:1048A0000E94142290932106809320060E941022D9
:1048B000682F70E090E080E00C94181F8091DD0577
:1048C00080FF12C060918A0385E0689FB0011124C7
:1048D000759567957595679560387105A8F56115AB
:1048E0007105A1F1862F089581FF09C060918A03A7
:1048F00085E0689FB001112475956795EDCF6091B3
:104900008A0382FD0AC08091DC058823D1F0909152
:10491000890360918A03891728F085E0689FB001B8
:104920001124DACF869FB001112485E0869F900183
:10493000879F300D1124692F70E0C9010E940F3349
:10494000CBCF65E070E0CECF8FE7089581E008958A
:104950008091DD0580FF0CC06091880370E0759543
:104960006795759567956115710549F1862F0895CD
:1049700081FF06C06091880370E075956795F3CF5D
:104980006091880382FD0BC09091DC059923A1F012
:104990006091870380918803961738F0682F70E044
:1049A0006038710500F38FE70895899FC0011124D5
:1049B00070E00E940F33F4CF61E070E0D7CF81E068
:1049C0000895803F31F40E945E2481958093E10533
:1049D0000895813F19F40E945E24F8CF823F31F49C
:1049E0000E945E2481958093E0050895833F19F429
:1049F0000E945E24F8CF893F29F40E94A824809366
:104A0000E20508958A3F21F40E94A8248195F7CFFA
:104A10008B3F31F40E94A82481958093E30508958B
:104A20008C3F19F40E94A824F8CF843F31F4809180
:104A3000DF0581608093DF050895853F21F4809133
:104A4000DF058260F7CF863F21F48091DF05846027
:104A5000F1CF873F21F48091DF058860EBCF883F5D
:104A600021F48091DF058061E5CF8D3F31F48091A5
:104A7000DD0581608093DD0508958E3F21F48091EE
:104A8000DD058260F7CF8F3FB9F78091DD05846047
:104A9000F1CF9091E005803F41F48091E10587FDE1
:104AA0001092E105992371F00895813F29F48091D6
:104AB000E1051816ACF3F6CF823F81F497FFF2CFF1
:104AC0001092E0058091E1059091E205892B90918B
:104AD000E305892B49F71092DC050895833F19F40B
:104AE000191674F3DFCF893F39F48091E205181667
:104AF000CCF61092E205D6CF8A3F29F48091E205E8
:104B000087FFD0CFF6CF8B3F39F48091E30587FF45
:104B1000C9CF1092E305C6CF8C3F29F48091E305FD
:104B20001816BCF3BFCF843F31F48091DF058E7F30
:104B30008093DF05B7CF853F21F48091DF058D7F1E
:104B4000F7CF863F21F48091DF058B7FF1CF873F40
:104B500021F48091DF05877FEBCF883F21F480919E
:104B6000DF058F7EE5CF8D3F31F48091DD058E7FAF
:104B70008093DD0597CF8E3F21F48091DD058D7FF9
:104B8000F7CF8F3F09F08ECF8091DD058B7FF0CF7F
:104B90008EED95E00E944E150E94BA239093DB059E
:104BA0008093DA0508951F93CF93DF938091DA0500
:104BB0009091DB050E94C623AC019091DC05209109
:104BC0008B0330E0911106C02091D9058AE0289F1F
:104BD000900111244217530778F02091E005C0910D
:104BE000E105D091E2051091E305211109C08C2F58
:104BF0008D2B812B09F06AC0DF91CF911F91089511
:104C00009F3F19F09F5F9093DC05121624F40E94D9
:104C10005E248093E0058091E00587FF05C00E9437
:104C20005E2481958093E0051C1624F40E945E2486
:104C30008093E1058091E10587FF05C00E945E2415
:104C400081958093E1053091E0053323A1F0209117
:104C5000E105222381F045EB3403C001112499239F
:104C600069F19093E00545EB24039001112433236F
:104C700049F13093E1051D1624F40E94A824809385
:104C8000E2058091E20587FF05C00E94A824819576
:104C90008093E205111624F40E94A8248093E30572
:104CA0008091E30587FF05C00E94A8248195809329
:104CB000E305DF91CF911F910C94C82581E080938B
:104CC000E005D1CF81E08093E105D5CF9F3F09F08A
:104CD00099CFAACF86E0EEEDF5E0DF011D928A952F
:104CE000E9F71092DC051092DD050895833081F11B
:104CF00028F4813059F08230D1F00895853009F4DC
:104D000049C0B8F1863009F456C008958091D9059C
:104D1000482F460F5527551F4F3F510524F4680F64
:104D20006093D90508958FEF8093D90508958091F8
:104D30008B03482F460F5527551F4F3F510524F42D
:104D4000680F60938B0308958FEF80938B03089512
:104D500080918A03482F460F5527551F4F3F510515
:104D600024F4680F60938A0308958FEF80938A0379
:104D7000089580918903482F460F5527551F4F3FAF
:104D8000510524F4680F6093890308958FEF809391
:104D90008903089580918803482F460F5527551F92
:104DA0004F3F510524F4680F6093880308958FEFF7
:104DB00080938803089580918703482F460F5527D5
:104DC000551F4F3F510524F4680F609387030895E2
:104DD0008FEF809387030895833011F128F4813099
:104DE00049F0823091F00895853081F120F18630CC
:104DF000C1F108958091D905681720F4861B80932E
:104E0000D90508951092D905089580918B036817EC
:104E100020F4861B80938B03089510928B030895D2
:104E200080918A03681720F4861B80938A03089573
:104E300010928A03089580918903681720F4861BD5
:104E400080938903089510928903089580918803BF
:104E5000681720F4861B80938803089510928803B6
:104E6000089580918703681720F4861B8093870339
:104E700008951092870308950F931F9341E050E027
:104E800060E070E08A019B0104C0000F111F221F27
:104E9000331F8A95D2F7C901B8010E94181F1F91CC
:104EA0000F910C941E1BEBEFE80FEF3308F060C07E
:104EB000F0E0E454FB4C0C9423330E94A42281E0E4
:104EC00008958091D705807F8093D70581E08093F6
:104ED000E50508950E941E1B0E946D0E0E94F407B6
:104EE0000E941424ECCF9091D705892F8E7F90FFDC
:104EF00081608093D70580FDE2CF817F8093D705C5
:104F0000DECF9091D705892F8D7F91FF82608093AE
:104F1000D70581FFD4CF8091D7058160EFCF9091E5
:104F2000D705892F8B7F92FF84608093D70582FD00
:104F3000F2CFC5CF9091D705892F877F93FF8860E7
:104F40008093D70583FDE7CFBACF0E941E1B9091B7
:104F50002006892F97FB87F9805880932006AFCFD2
:104F600080E00E943C27ABCF8953FBCF8D51F9CF16
:104F700080E0089580E008950C94BA278E518A301D
:104F800030F4E82FF0E0EE59FB4F8081089580E087
:104F90000895CF93C82F8091E5058130E1F08823F3
:104FA00029F08230E9F11092E50513C00E94022138
:104FB000813159F48C2F0E94BA27811125C08C2F82
:104FC0000E9453278170CF9108950E94022182325E
:104FD00089F380E0F8CF0E940221813159F30E94C9
:104FE0000221823239F38C2F0E94BC2781110AC022
:104FF000C43199F060F4CB3029F0C03119F782E068
:105000008093E50581E0DECF81E090E0DBCFC9321F
:1050100021F0C833B9F380E0D5CF1092E505FBCF7E
:10502000C93219F188F4C43101F120F4C73081F19B
:1050300081E0C9CF82EE8C0F8630D0F78C2F0E9492
:10504000BE278093E405F4CFCE3401F140F46AE04A
:10505000CB3471F78091E4050E947626E9CFC13503
:1050600079F061E0C235B1F3E3CF8091E4058823A4
:1050700019F01092E405DCCF81E08093E505A3CF21
:1050800061E08091E4050E94EC26D2CF6AE0F9CF7E
:105090001092D90584E180938B03C0938A038CE33B
:1050A0008093890388E08093880388E28093870354
:1050B000BFCF8091060608950F931F93CF93DF9380
:1050C00000D00F92CDB7DEB78C010E94C02A82308B
:1050D00011F0843021F584E089831B830A8382E008
:1050E0008093E9008FEF9091E800815095FD06C014
:1050F00095ED9A95F1F700008111F5CF8091E800C8
:1051000085FF0DC050E040E063E070E0CE01019605
:105110000E94DD2A8091E8008E778093E8000F904E
:105120000F900F90DF91CF911F910F910895CF9322
:10513000DF9300D00F92CDB7DEB720912606243042
:1051400031F523E02983805891099B838A8382E08B
:105150008093E9008FEF9091E800815095FD06C0A3
:1051600095ED9A95F1F700008111F5CF8091E80057
:1051700085FF0DC050E040E063E070E0CE01019695
:105180000E94DD2A8091E8008E778093E8000F90DE
:105190000F900F90DF91CF910895CF93DF93EC01A3
:1051A0000E94C02A823011F08430F9F482E08093AA
:1051B000E9008FEF9091E800815095FD06C095EDD4
:1051C0009A95F1F700008111F5CF8091E80085FFF5
:1051D0000CC050E040E066E070E0CE010E94DD2AA5
:1051E0008091E8008E778093E800DF91CF91089559
:1051F000CF93DF93EC010E94C02A823011F08430FB
:10520000B9F5809196038823B1F18091200687FF3C
:1052100032C060E282E08093E9008FEF9091E80075
:10522000815095FD06C095ED9A95F1F7000081112A
:10523000F5CF8091E80085FF1BC08091960370E058
:1052400050E040E0811104C050E040E068E070E0D0
:10525000CE010E94DD2A8091E8008E778093E800DD
:1052600080E2FE01A6EEB5E001900D928A95E1F78D
:10527000DF91CF91089568E081E0CDCF8091250640
:10528000811109C00E946D2C0E94CA2C8091E200FD
:1052900084608093E2000895109225060895089591
:1052A00008950C94822342E061EC81E00E94E92B96
:1052B00042E261EC82E00C94E92B80912806833075
:1052C00009F45FC030F48130C1F1823009F49BC031
:1052D00008958A3009F487C08B3009F46DC0893095
:1052E00009F04EC080912706813209F049C08091B3
:1052F0002B0690912C06029708F042C08091E8009E
:10530000877F8093E8008091E80082FF35C090910C
:10531000F3008091F200029729F48091F1008B7FD5
:10532000813021F48091F100809306068091E8009D
:105330008B778093E8000C941D2C80912706813A8E
:10534000F9F48091E800877F8093E80080912B0634
:1053500090912C06892B61F460E286EE95E070E076
:105360000E942C2B8091E8008B778093E8000895B1
:1053700060E090E080E0F3CF809126068111C3CFFA
:10538000089580912706813AD9F780912B06909154
:105390002C06892BA9F78091E800877F8093E8008D
:1053A0008091E80080FFFCCF809196038093F1000C
:1053B0008091E8008E77BDCF80912706813201F77A
:1053C00080912B0690912C06892BD1F68091E800D4
:1053D000877F8093E8000E941D2C8091290680938E
:1053E00096030C941E1B80912706813249F680910A
:1053F000E800877F8093E8000E941D2C80912A0698
:1054000080930706089580912706813A09F0B8CF66
:105410008091E800877F8093E8008091E80080FF1A
:10542000FCCF80910706C2CF84B7877F84BF0FB6B9
:10543000F894A89580916000886180936000109234
:1054400060000FBE80E880936100109261000E94AE
:1054500096150E946D2C0E94CA2C8091E2008460F7
:105460008093E20078940E94532F0E949E158CE84E
:1054700093E00E94231580912606853019F00E9442
:10548000A615F9CF0E943A2380912406882399F328
:105490000E946B23882379F30E94C72AECCF0C94D7
:1054A000512A292F33272330310519F168F421308F
:1054B000310509F44AC02230310509F44BC090E0AF
:1054C00080E030E020E028C02132310579F122323D
:1054D0003105A9F780E490E020E737E06115710518
:1054E000D9F080EC90E020EB36E061307105A1F05E
:1054F000E6CF99278130910599F0009741F08230ED
:10550000910589F00397D9F6E9E2F6E002C0EFE5EC
:10551000F6E0849190E09F01FA01318320830895A1
:10552000E7E4F6E0F6CFEFE2F6E0F3CF89E090E0D3
:1055300025E736E06115710579F389E090E02EE802
:1055400036E06130710541F3BACF82E190E02EE997
:1055500036E0E2CF8BE390E023E636E0DDCF08953E
:10556000CF93C82F0E94AF2AC0930806CF91089509
:1055700080912606843011F482E0089581E0089538
:1055800080910806811102C00C94B82A089580E128
:1055900089BD82E189BD09B400FEFDCF8091D800AC
:1055A0008F7D8093D8008091E00082608093E0003E
:1055B0008091E00081FDFCCF0895AF92BF92CF9221
:1055C000DF92FF920F931F93CF93DF936C01EB0158
:1055D0008A010E943C2CF82E811123C0011511056F
:1055E00039F0F80180819181C81BD90BC80ED91EF2
:1055F000B12CA12C2097A9F08091E80085FD22C054
:105600008091E8008E778093E80001151105A1F0E4
:10561000F80180819181A80EB91EB182A08285E037
:10562000F82E8F2DDF91CF911F910F91FF90DF907A
:10563000CF90BF90AF9008950E943C2C8823D1F268
:10564000F82EEFCFF60181916F018093F100219741
:10565000FFEFAF1ABF0ACECFFC0180912D069091CB
:105660002E0686179707A0F06115710529F4909111
:10567000E8009E779093E80090E06115710551F481
:10568000911108C08091E80082FF34C080E0089545
:10569000BC01F2CF809126068823C1F18530C1F18B
:1056A0008091E80083FD30C08091E80082FDEACF60
:1056B0008091E80080FFE1CF8091F3002091F2001B
:1056C000382F6115710519F02830310558F091E037
:1056D0002830310509F090E02091E8002E772093E2
:1056E000E800CBCF81918093F100615071092F5F69
:1056F0003F4FE7CF80912606882341F0853041F067
:105700008091E80083FFBECF81E0089582E0089594
:1057100083E00895FC0180912D0690912E06861756
:105720009707A0F06115710529F48091E8008E7744
:105730008093E80090E06115710551F4911108C063
:105740008091E80082FF35C080E00895BC01F2CF6F
:10575000809126068823C9F18530C9F18091E8003F
:1057600083FD31C08091E80082FDEACF8091E8009E
:1057700080FFE1CF8091F3002091F200382F611576
:10578000710519F02830310558F091E028303105C5
:1057900009F090E08091E8008E778093E800CBCF0D
:1057A00084918093F1003196615071092F5F3F4FD2
:1057B000E6CF80912606882341F0853041F0809124
:1057C000E80083FFBDCF81E0089582E0089583E083
:1057D0000895982F973028F08F708093E90081E02A
:1057E00008959093E900242F762F50E0981731F018
:1057F0007091EC002091ED005091F00021FD02C06D
:105800009F5FE8CF3091EB003E7F3093EB0030910B
:10581000ED003D7F3093ED003091EB00316030932F
:10582000EB007093EC002093ED005093F00020917A
:10583000EE0027FDE5CF80E008958091270687FFE1
:1058400013C08091E80082FF06C08091E8008B774A
:105850008093E80004C0809126068111F2CF08955C
:10586000809126068823D9F38091E80080FFF8CF45
:105870008091E8008E77ECCF2091E4003091E50034
:1058800095E6A9012091EC00822F817020FF06C0CF
:105890008091E80080FF06C080E008952091E80034
:1058A00022FD1AC080912606882389F0853089F070
:1058B0008091EB0085FD0FC02091E4003091E50060
:1058C00042175307F9F29150E1F684E0089582E01F
:1058D000089583E0089581E008950E94DB2C0E94E2
:1058E000E32CE0EEF0E0808181608083E8EDF0E081
:1058F00080818F77808319BCA7EDB0E08C918E7F7B
:105900008C9380818F7E80831092250608950F935B
:105910001F93CF93DF930E94DB2C0E94E32CC8EDF2
:10592000D0E088818F7788838881806888838881A8
:105930008F7D888319BC1092260610922206109241
:1059400024061092230600EE10E0F80180818B7F80
:10595000808388818160888342E060E080E00E94EB
:10596000E92BE1EEF0E080818E7F8083E2EEF0E0D3
:10597000808181608083808188608083F80180815C
:105980008E7F8083888180618883DF91CF911F9192
:105990000F910895E8EDF0E080818F7E8083E7ED40
:1059A000F0E080818160808384E082BF81E0809329
:1059B00025060C94872CE8EDF0E080818E7F8083B3
:1059C0001092E20008951092DA001092E10008951A
:1059D0001F920F920FB60F9211242F933F934F9364
:1059E0005F936F937F938F939F93AF93BF93EF9347
:1059F000FF938091E10082FF0BC08091E20082FF63
:105A000007C08091E1008B7F8093E1000E94522FBC
:105A10008091DA0080FF19C08091D80080FF15C006
:105A20008091DA008E7F8093DA008091D90080FF28
:105A300096C080E189BD82E189BD09B400FEFDCF39
:105A400081E0809326060E943E298091E10080FF3C
:105A500019C08091E20080FF15C08091E2008E7F26
:105A60008093E2008091E20080618093E200809167
:105A7000D80080628093D80019BC85E08093260608
:105A80000E9450298091E10084FF2BC08091E200A8
:105A900084FF27C080E189BD82E189BD89B5982F47
:105AA000917080FFFBCF8091D8008F7D8093D800CC
:105AB0008091E1008F7E8093E1008091E2008F7EF3
:105AC0008093E2008091E20081608093E200809107
:105AD0002206882309F449C084E0809326060E94A8
